:020000040800F2
:1000000000000520810F00085D2100085F21000825
:10001000612100086321000865210008000000003C
:1000200000000000000000000000000061D2000895
:10003000672100080000000001D3000865D3000814
:10004000D10F0008D10F0008D10F0008D10F000810
:10005000D10F0008D10F0008D10F0008D10F000800
:10006000D10F0008D10F0008D10F0008D10F0008F0
:10007000D10F0008D10F0008D10F0008D10F0008E0
:10008000D10F0008D10F0008D10F0008D10F0008D0
:10009000D10F0008D10F0008D10F0008D10F0008C0
:1000A000D10F0008D10F0008D10F0008D10F0008B0
:1000B000D10F000869210008D10F0008D10F0008F6
:1000C000D10F0008D10F0008D10F0008D10F000890
:1000D000D10F0008D10F0008D10F0008D10F000880
:1000E000D10F0008D10F0008D10F0008D10F000870
:1000F000D10F0008D10F0008D10F0008D10F000860
:10010000D10F0008D10F0008D10F0008D10F00084F
:10011000D10F0008D10F000875210008D10F000889
:10012000D10F0008D10F0008D10F0008D10F00082F
:10013000D10F0008D10F0008D10F0008D10F00081F
:10014000D10F0008D10F0008D10F0008812100084D
:10015000D10F0008D10F0008D10F0008D10F0008FF
:10016000D10F0008D10F0008D10F0008D10F0008EF
:10017000D10F0008D10F0008D10F000800000000C7
:10018000D10F0008D10F0008D10F0008D10F0008CF
:10019000D10F0008D10F0008D10F0008D10F0008BF
:1001A0008D210008D10F000899210008D10F000807
:1001B000D10F0008D10F0008D10F0008D10F00089F
:0801C000D10F0008D10F000867
:1001D00010B5054C237833B9044B13B10448AFF381
:1001E00000800123237010BD4C010020000000009E
:1001F000E839020808B5034B1BB103490348AFF3C4
:10020000008008BD0000000050010020E83902080D
:1002100081F0004102E000BF83F0004330B54FEAB7
:1002200041044FEA430594EA050F08BF90EA020F24
:100230001FBF54EA000C55EA020C7FEA645C7FEAB7
:10024000655C00F0E2804FEA5454D4EB5555B8BFDA
:100250006D420CDD2C4480EA020281EA030382EA4B
:10026000000083EA010180EA020281EA0303362DDD
:1002700088BF30BD11F0004F4FEA01314FF4801CB0
:100280004CEA113102D0404261EB410113F0004FC2
:100290004FEA03334CEA133302D0524263EB430379
:1002A00094EA050F00F0A780A4F10104D5F1200E17
:1002B0000DDB02FA0EFC22FA05F2801841F1000172
:1002C00003FA0EF2801843FA05F359410EE0A5F146
:1002D00020050EF1200E012A03FA0EFC28BF4CF077
:1002E000020C43FA05F3C01851EBE37101F000452D
:1002F00007D54FF0000EDCF1000C7EEB00006EEB3A
:100300000101B1F5801F1BD3B1F5001F0CD34908C3
:100310005FEA30004FEA3C0C04F101044FEA44521A
:1003200012F5800F80F09A80BCF1004F08BF5FEAA1
:10033000500C50F1000041EB045141EA050130BD81
:100340005FEA4C0C404141EB010111F4801FA4F124
:100350000104E9D191F0000F04BF01460020B1FA79
:1003600081F308BF2033A3F10B03B3F120020CDAB1
:100370000C3208DD02F1140CC2F10C0201FA0CF08F
:1003800021FA02F10CE002F11402D8BFC2F1200CF4
:1003900001FA02F120FA0CFCDCBF41EA0C019040AA
:1003A000E41AA2BF01EB0451294330BD6FEA0404F3
:1003B0001F3C1CDA0C340EDC04F11404C4F12002DE
:1003C00020FA04F001FA02F340EA030021FA04F3F0
:1003D00045EA030130BDC4F10C04C4F1200220FA47
:1003E00002F001FA04F340EA0300294630BD21FA85
:1003F00004F0294630BD94F0000F83F4801306BF4B
:1004000081F480110134013D4EE77FEA645C18BF3E
:100410007FEA655C29D094EA050F08BF90EA020FD5
:1004200005D054EA000C04BF1946104630BD91EACD
:10043000030F1EBF0021002030BD5FEA545C05D1D0
:100440004000494128BF41F0004130BD14F580040F
:100450003CBF01F5801130BD01F0004545F0FE4183
:1004600041F470014FF0000030BD7FEA645C1ABFB8
:10047000194610467FEA655C1CBF0B46024650EAEF
:10048000013406BF52EA033591EA030F41F400211B
:1004900030BD00BF90F0000F04BF0021704730B5A1
:1004A0004FF4806404F132044FF000054FF0000176
:1004B00050E700BF90F0000F04BF0021704730B537
:1004C0004FF4806404F1320410F0004548BF40420C
:1004D0004FF000013EE700BF42004FEAE2014FEA61
:1004E00031014FEA02701FBF12F07F4393F07F4F3C
:1004F00081F06051704792F0000F14BF93F07F4F6E
:10050000704730B54FF4607401F0004521F00041B0
:1005100020E700BF50EA010208BF704730B54FF036
:1005200000050AE050EA010208BF704730B511F03B
:10053000004502D5404261EB41014FF4806404F173
:1005400032045FEA915C3FF4DCAE4FF003025FEAF5
:10055000DC0C18BF03325FEADC0C18BF033202EB7D
:10056000DC02C2F1200300FA03FC20FA02F001FAD7
:1005700003FE40EA0E0021FA02F11444C1E600BF76
:1005800070B54FF0FF0C4CF4E06C1CEA11541DBF29
:100590001CEA135594EA0C0F95EA0C0F00F0DEF8F4
:1005A0002C4481EA030621EA4C5123EA4C5350EAD9
:1005B000013518BF52EA033541F4801143F480132A
:1005C00038D0A0FB02CE4FF00005E1FB02E506F0BB
:1005D0000042E0FB03E54FF00006E1FB03569CF010
:1005E000000F18BF4EF0010EA4F1FF04B6F5007F16
:1005F00064F5407404D25FEA4E0E6D4146EB060688
:1006000042EAC62141EA55514FEAC52040EA5E5010
:100610004FEACE2EB4F1FD0C88BFBCF5E06F1ED8BA
:10062000BEF1004F08BF5FEA500E50F1000041EBF1
:10063000045170BD06F0004646EA010140EA02009E
:1006400081EA0301B4EB5C04C2BFD4EB0C0541EAC0
:10065000045170BD41F480114FF0000E013C00F3D5
:10066000AB8014F1360FDEBF002001F0004170BDF9
:10067000C4F10004203C35DA0C341BDC04F1140412
:10068000C4F1200500FA05F320FA04F001FA05F29E
:1006900040EA020001F0004221F0004110EBD3706B
:1006A00021FA04F642EB06015EEA430E08BF20EA97
:1006B000D37070BDC4F10C04C4F1200500FA04F33A
:1006C00020FA05F001FA04F240EA020001F00041CC
:1006D00010EBD37041F100015EEA430E08BF20EA3F
:1006E000D37070BDC4F1200500FA05F24EEA020E87
:1006F00020FA04F301FA05F243EA020321FA04F0B6
:1007000001F0004121FA04F220EA020000EBD3706C
:100710005EEA430E08BF20EAD37070BD94F0000F6C
:100720000FD101F00046400041EB010111F4801FA0
:1007300008BF013CF7D041EA060195F0000F18BF51
:10074000704703F00046520043EB030313F4801F8D
:1007500008BF013DF7D043EA0603704794EA0C0F47
:100760000CEA135518BF95EA0C0F0CD050EA41065D
:1007700018BF52EA4306D1D181EA030101F00041DA
:100780004FF0000070BD50EA410606BF1046194602
:1007900052EA430619D094EA0C0F02D150EA01360E
:1007A00013D195EA0C0F05D152EA03361CBF10464F
:1007B00019460AD181EA030101F0004141F0FE41EE
:1007C00041F470014FF0000070BD41F0FE4141F472
:1007D000780170BD70B54FF0FF0C4CF4E06C1CEA72
:1007E00011541DBF1CEA135594EA0C0F95EA0C0F27
:1007F00000F0A7F8A4EB050481EA030E52EA0335E2
:100800004FEA013100F088804FEA03334FF0805502
:1008100045EA131343EA12634FEA022245EA11152F
:1008200045EA10654FEA00260EF000419D4208BFE0
:10083000964244F1FD0404F5407402D25B084FEA8D
:100840003202B61A65EB03055B084FEA32024FF439
:1008500080104FF4002CB6EB020E75EB030E22BF96
:10086000B61A754640EA0C005B084FEA3202B6EB56
:10087000020E75EB030E22BFB61A754640EA5C0005
:100880005B084FEA3202B6EB020E75EB030E22BF95
:10089000B61A754640EA9C005B084FEA3202B6EB96
:1008A000020E75EB030E22BFB61A754640EADC0055
:1008B00055EA060E18D04FEA051545EA16754FEAB7
:1008C00006164FEAC30343EA52734FEAC2025FEAD5
:1008D0001C1CC0D111F4801F0BD141EA00014FF064
:1008E00000004FF0004CB6E711F4801F04BF014335
:1008F0000020B4F1FD0C88BFBCF5E06F3FF6AFAE51
:10090000B5EB030C04BFB6EB020C5FEA500C50F1E0
:10091000000041EB045170BD0EF0004E4EEA113163
:1009200014EB5C04C2BFD4EB0C0541EA045170BD6A
:1009300041F480114FF0000E013C90E645EA060EAE
:100940008DE60CEA135594EA0C0F08BF95EA0C0FDC
:100950003FF43BAF94EA0C0F0AD150EA01347FF424
:1009600034AF95EA0C0F7FF425AF104619462CE7FB
:1009700095EA0C0F06D152EA03353FF4FDAE10465E
:10098000194622E750EA410618BF52EA43067FF4AF
:10099000C5AE50EA41047FF40DAF52EA43057FF43F
:1009A000EBAE12E74FF0FF3C06E000BF4FF0010C4A
:1009B00002E000BF4FF0010C4DF804CD4FEA410CAE
:1009C0007FEA6C5C4FEA430C18BF7FEA6C5C1BD07B
:1009D00001B050EA410C0CBF52EA430C91EA030FFC
:1009E00002BF90EA020F0020704710F1000F91EA59
:1009F000030F58BF994208BF90422CBFD8176FEA27
:100A0000E37040F0010070474FEA410C7FEA6C5CF4
:100A100002D150EA013C07D14FEA430C7FEA6C5CFB
:100A2000D6D152EA033CD3D05DF8040B704700BF27
:100A30008446104662468C461946634600E000BF75
:100A400001B5FFF7B7FF002848BF10F1000F01BD47
:100A50004DF808EDFFF7F4FF0CBF012000205DF812
:100A600008FB00BF4DF808EDFFF7EAFF34BF012097
:100A700000205DF808FB00BF4DF808EDFFF7E0FF30
:100A800094BF012000205DF808FB00BF4DF808ED81
:100A9000FFF7CEFF94BF012000205DF808FB00BFE8
:100AA0004DF808EDFFF7C4FF34BF012000205DF8CA
:100AB00008FB00BF4FEA410C7FEA6C5C02D150EAB0
:100AC000013C0AD14FEA430C7FEA6C5C02D152EA46
:100AD000033C02D14FF0000070474FF00100704717
:100AE0004FEA410212F5001215D211D56FF4787356
:100AF000B3EB625212D94FEAC12343F0004343EAF9
:100B0000505311F0004F23FA02F018BF40427047D3
:100B10004FF00000704750EA013005D111F000405D
:100B200008BF6FF0004070474FF00000704700BFF3
:100B30004FEA4102B2F1E04324BFB3F5001CDCF1FF
:100B4000FE5C0DD901F0004C4FEAC0024CEA507037
:100B5000B2F1004F40EB830008BF20F00100704766
:100B600011F0804F21D113F13872BCBF01F0004069
:100B7000704741F480114FEA5252C2F11802C2F19B
:100B8000200C10FA0CF320FA02F018BF40F001001C
:100B90004FEAC1234FEAD32303FA0CFC40EA0C00CE
:100BA00023FA02F34FEA4303CCE77FEA625307D10B
:100BB00050EA01331EBF4FF0FE4040F44000704742
:100BC00001F0004040F0FE4040F40000704700BFDC
:100BD0007BB972B90029BEBF00204FF0004106E08A
:100BE00008BF00281CBF6FF000414FF0FF3000F03D
:100BF000C5B9ADF1080C6DE904CE002909DB002B65
:100C00001ADB00F04DF8DDF804E0DDE9022304B062
:100C10007047404261EB4101002B1BDB00F040F8C4
:100C2000DDF804E0DDE9022304B0404261EB41015C
:100C3000524263EB43037047524263EB430300F0BD
:100C40002FF8DDF804E0DDE9022304B0404261EB57
:100C500041017047524263EB430300F021F8DDF895
:100C600004E0DDE9022304B0524263EB4303704722
:100C700053B94AB9002908BF00281CBF4FF0FF3103
:100C80004FF0FF3000F07AB9ADF1080C6DE904CEF9
:100C900000F006F8DDF804E0DDE9022304B0704757
:100CA0002DE9F0478C460D460446089E002B51D195
:100CB0008A4217466DD9B2FA82FEBEF1000F0BD000
:100CC000CEF1200C01FA0EF520FA0CFC02FA0EF718
:100CD0004CEA050C00FA0EF44FEA174A250CBCFB4F
:100CE000FAF81FFA87F90AFB18CC45EA0C4508FB0D
:100CF00009F3AB420AD9ED1908F1FF3280F02381E4
:100D0000AB4240F22081A8F102083D44ED1AA4B2A2
:100D1000B5FBFAF00AFB105544EA054400FB09F95B
:100D2000A14509D9E41900F1FF3380F00A81A145FA
:100D300040F2078102383C44A4EB090440EA084031
:100D40000021002E61D024FA0EF400233460736079
:100D5000BDE8F0878B4207D9002E54D0002186E8E9
:100D600021000846BDE8F087B3FA83F1002940F07E
:100D70008E80AB4202D3824200F2FA80841A65EB85
:100D800003050120AC46002E3FD086E81010BDE8D8
:100D9000F08712B90127B7FBF2F7B7FA87FEBEF169
:100DA000000F34D1EB1B3A0C1FFA87FC0121B3FB77
:100DB000F2F8250C02FB183345EA03450CFB08F357
:100DC000AB4207D9ED1908F1FF3002D2AB4200F275
:100DD000D1808046ED1AA3B2B5FBF2F002FB1055AC
:100DE00043EA05440CFB00FCA44507D9E41900F1D3
:100DF000FF3302D2A44500F2B8801846A4EB0C04DD
:100E000040EA08409DE731463046BDE8F087CEF124
:100E1000200405FA0EF307FA0EF720FA04F83A0C4C
:100E200025FA04F448EA0308B4FBF2F14FEA184546
:100E300002FB11441FFA87FC45EA044501FB0CF351
:100E4000AB4200FA0EF409D9ED1901F1FF3080F040
:100E50008A80AB4240F2878002393D44EB1A1FFA88
:100E600088F5B3FBF2F002FB103345EA034500FBC3
:100E70000CF3AB4207D9ED1900F1FF386FD2AB424A
:100E80006DD902383D44EB1A40EA01418FE7C1F1C8
:100E9000200722FA07F88B4005FA01F448EA030319
:100EA00020FA07FE4FEA134CFD404EEA040EB5FB54
:100EB000FCF94FEA1E440CFB19551FFA83F844EA6B
:100EC000054509FB08F4AC4202FA01F200FA01FA06
:100ED00008D9ED1809F1FF3043D2AC4241D9A9F14C
:100EE00002091D442D1B1FFA8EFEB5FBFCF00CFB06
:100EF00010554EEA054400FB08F8A04507D9E41850
:100F000000F1FF3529D2A04527D902381C4440EA18
:100F10000940A4EB0804A0FB02894C45C6464D4697
:100F200015D312D056B1BAEB0E0364EB050404FAE4
:100F300007F7CB401F43CC40376074600021BDE809
:100F4000F0871846F8E69046E0E6C245EAD2B8EBEC
:100F5000020E69EB03050138E4E72846D7E740466F
:100F600091E78146BEE7014678E702383C4445E711
:100F7000084608E7A8F102083D442BE7704700BF88
:100F8000DFF834D0002103E00C4B5B5843500431B0
:100F90000B480C4B42189A42F6D30B4A02E000234E
:100FA00042F8043B094B9A42F9D303F045FC20F088
:100FB00069FE00F05BFD70470000052088B3020861
:100FC000000000204C0100204C0100207CB00220D9
:100FD000FEE770B50E4615460C46A31B9D4201DC8C
:100FE000284670BD00F0D0F904F8010BF5E770B5A4
:100FF0000E4615460C46A31B9D4201DC284670BDDB
:1010000014F8010B00F0B0F9F5E7000008B50A4B41
:101010000246196809B90949196018686946024405
:101020008A4206D920F028FE0C2303604FF0FF30DF
:1010300008BD1A6008BD00BF100500207CB002206A
:101040004FF0FF3070474FF4005300204B60704763
:1010500001207047002070471FB51022002168460C
:101060004FF4803420F076FE1248134B134A80E888
:10107000180000230124826283600361836180F889
:101080002030C362C360C46180F83030446103F033
:1010900033FC08B100F04CFD0423694605488DE897
:1010A00018000023029303F061FD08B100F040FD39
:1010B00004B010BDD89B0220002201400100000FA7
:1010C00010B588B004461422002103A820F042FE87
:1010D00022681A4B9A422ED103F58B33032403A9BD
:1010E00017485A6C42F480625A645A6C02F4806267
:1010F0000092009A1A6B42F020021A631A6B02F0F7
:1011000020020192019A1A6B42F001021A631B6BD2
:10111000049403F001030293029B4FF4F8630393DA
:1011200004F070F9012303A90648039300230494F3
:10113000059304F067F908B010BD00BF002201401C
:10114000001402400000024008B50948094B036042
:10115000002303714371436183610123036203F040
:1011600057FE18B1BDE8084000F0E2BC08BD00BF62
:10117000209C022000300240026882B0084B9A4254
:101180000BD1D3F8302803F5006342F480521A6380
:101190001B6B03F480530193019B02B0704700BFA7
:1011A0000030024008B50B480B4B0360002343603E
:1011B0008360C3600361436183610362436283624E
:1011C000C362036303F0C2FE18B1BDE8084000F03B
:1011D000AFBC08BD449C02200000055070B58CB027
:1011E00004461422002107A820F0B4FD2268384BE1
:1011F0009A426BD1374B02260D2507A95A6B002462
:10120000354842F001025A635A6B02F00102019222
:10121000019A1A6B42F010021A631A6B02F0100264
:101220000292029A1A6B42F008021A631A6B02F0D9
:1012300008020392039A1A6B42F040021A631A6B77
:1012400002F040020492049A1A6B42F080021A6380
:101250001A6B02F080020592059A1A6B42F00102A5
:101260001A631B6B089603F001030693069B602329
:1012700007930B9504F0C6F8082307A917480793AE
:10128000089609940A940B9504F0BCF84FF4007387
:1012900007A913480793089609940A940B9504F03C
:1012A000B1F84FF4BC4307A90E4807930896099478
:1012B0000A940B9504F0A6F8502307A90A4807934F
:1012C000089609940A940B9504F09CF80CB070BD34
:1012D000000005500038024000100240000C02409F
:1012E00000180240001C0240000002402DE9F047B7
:1012F0001E46023B1446222B04D9002313702046BD
:10130000BDE8F0871546B0464FEAE679DFF854A00D
:10131000074642464B46FFF75BFCA6FB00230AEB61
:101320000703AE469A1A92F823300EF8013B50EAB2
:10133000010315D1002FBEBF2D238EF8003005F11B
:10134000020E00230EF1FF328EF8003023469A423F
:10135000D5D91178187802F8010903F8011BF6E7CE
:101360007546D5E7ACA9020813B502A904460A23BD
:10137000012201F8040D03480AF051FA204602B098
:1013800010BD00BF98A1022013B5074C0A2301220B
:101390000DF1070120460AF099FA0028F6D19DF8D0
:1013A000070002B010BD00BF98A10220FFF7DCBF0C
:1013B0000A20FFF7D9BF10B5441E14F8010F00B979
:1013C00010BDFFF7D1FFF8E700B589B00A23C117B8
:1013D0006A46FFF78BFF6846FFF7EDFF09B05DF83F
:1013E00004FB00000A4A49F26901136898B21B0C19
:1013F00001FB0030074910B5106044F250640A68E0
:1014000093B2120C04FB03230B6003EB004010BDEE
:10141000880000208400002008B501F0EDF902F0FA
:1014200091FD01F02BFD01200BF0BBFCFBE77047A9
:101430007047704730B5074D87B00FCD01AC0FC472
:101440002B68002101A823600BF091FC024B18606F
:1014500007B030BD003A0208949C0220704700009B
:101460002DE9F04F93B014220021DFF8C0B20DA88F
:10147000A44F20F06FFCA44B584620211A6B002487
:10148000DFF8ACA2032542F010024FF002094FF042
:101490000A0801261A631A6B02F010020292029ADD
:1014A0001A6B42F040021A631A6B02F04002039278
:1014B000039A1A6B42F002021A631A6B02F00202DC
:1014C0000492049A1A6B42F008021A631A6B02F033
:1014D00008020592059A1A6B42F004021A631A6B0D
:1014E00002F004020692069A1A6B42F001021A6395
:1014F0001A6B02F001020792079A1A6B42F400720B
:101500001A631A6B02F400720892089A1A6B42F47A
:1015100080721A631A6B02F480720992099A1A6B2C
:1015200042F480621A631A6B02F480620A920A9A89
:101530001A6B42F020021A631A6B02F020020B921F
:101540000B9A1A6B42F080021A6301221B6B03F0A4
:1015500080030C930C9B04F085F9384600220C2183
:1015600004F080F9694B012208211846009304F029
:1015700079F9384601224FF4805104F073F950464E
:1015800000224FF4005104F06DF90022C821604898
:1015900004F068F908230DA95E480D930E940F948A
:1015A00003F030FF43F623420DA95B480D92CDF8BE
:1015B00038900F941095CDF8448003F023FF4FF43A
:1015C00080520DA955480D920E940F9403F01AFF06
:1015D000534B40220DA958460E930D920F9403F0E1
:1015E00011FF20220DA958460E960D920F941094CB
:1015F00003F008FF41F20C020DA938460E960D9239
:101600000F94109403F0FEFE464A4FF400530DA9C8
:101610000E94104601920D930F9403F0F3FE0823ED
:101620000DA90E960D93009B0F941846109403F08D
:10163000E9FE10230DA958460D9300930E940F94C4
:1016400003F0E0FE48F2040150460E940D910DA9FE
:101650000F9403F0D7FE4FF400530DA950460E9699
:101660000D930F94109403F0CDFE4FF400613846B3
:101670000E950D910DA90F9403F0C4FE4FF4005385
:101680000DA938460F940D93254B0E9303F0BAFE27
:10169000009B0DA95046CDF838900D930F941095EE
:1016A000CDF8448003F0AEFEC8230DA918480D9371
:1016B0000E960F94109403F0A5FE019A05230DA930
:1016C000CDF8389010460D930F941095CDF84480C6
:1016D00003F098FE04230DA90D480D930E940F946A
:1016E00003F090FE28230DA90F480D93CDF83890F4
:1016F0000F941095CDF8448003F084FE13B0BDE83C
:10170000F08F00BF00200240003802400028024055
:101710000018024000100240000402400024024071
:10172000000012100008024000000240000C0240BD
:10173000001C024008B512480122124B1249C26037
:1017400080E80A0000238360036143618361C36111
:10175000036204F073FE08B100F0EAF900210848C2
:1017600005F0D8F808B100F0E3F90021044805F0CD
:1017700017F918B1BDE8084000F0DAB908BD00BF9C
:10178000E49C0220FFEAC0000054004008B5124863
:101790000122124B1249C26080E80A0000238360D4
:1017A000036143618361C361036204F047FE08B1D2
:1017B00000F0BEF90021084805F0ACF808B100F0CF
:1017C000B7F90021044805F0EBF818B1BDE808406E
:1017D00000F0AEB908BD00BF989C0220FFEAC0002F
:1017E000005C004010B514228AB0044600210DEBC5
:1017F000020020F0AFFA2368254A934221D1254CFC
:1018000005A92548236B43F002032363236B03F0F0
:1018100002030193019B4FF4407305931223069337
:10182000012307930423099303F0ECFD236C43F495
:1018300000132364236C03F400130293029B0AB089
:1018400010BD164A9342FAD1124C05A91448236BD5
:1018500043F080032363236B03F080030393039B14
:101860004FF4C073059312230693012307930323B8
:1018700008930423099303F0C5FD236C43F400038C
:101880002364236C03F400030493049BD7E700BF95
:10189000005400400038024000040240005C004058
:1018A000001C024003680E4A93420AD102F5F2324C
:1018B0004FF440710B48136C23F40013136403F0CE
:1018C000F5BE094A934209D102F5EE324FF4C071D8
:1018D0000648136C23F400031364F0E7704700BF5D
:1018E0000054004000040240005C0040001C024024
:1018F00070B5B4B030220021022507A8012620F0DF
:1019000029FA1422002102A820F024FA00218422BE
:1019100013A820F01FFA002405F064FC2E4B07A842
:101920001A6C42F080521A641B6C03F080530093CF
:10193000009B2A4B1A6842F440421A604FF48032EE
:101940001B6808924FF4800203F440430C960E92F9
:1019500019220193019B09230F924FF4C872079338
:10196000109212930D95119505F056FD05F042FC6D
:101970000F23062102A802934FF4A0530395059369
:101980004FF480530494069305F082FF144B13A880
:10199000179513936423159514934FF4C0731695FC
:1019A0001893052319951A9303231C961B934FF440
:1019B00000331D961E934FF4007323941F934FF032
:1019C0000063249429942C942E943293339406F03B
:1019D00095F834B070BD00BF003802400070004080
:1019E0006848B10108B54FF488714FF4F07002F007
:1019F00013FE054808F038FC00B1FEE7024808F085
:101A0000C1FA00B1FEE708BD98A0022000B58FB072
:101A100003A802F059FE144B9DF80C2019788DF89C
:101A2000082091421CD0BDF80E1021B1BDF818203D
:101A30000AB159809A81002258889B898DF8092023
:101A400001930090FFF7C0FC2020FFF7AFFCBDF82A
:101A50000400FFF7B9FCFFF7ABFC684614F0C4FBC9
:101A60000FB05DF804FB00BF1405002008B5BFF3FC
:101A70004F8FBFF36F8F274B0022C3F85022BFF365
:101A80004F8FBFF36F8F5A6942F400325A61BFF330
:101A90004F8FBFF36F8F02F0F5FEFFF729FFFFF7BF
:101AA000DFFCFFF7D9FAFFF74FFBFFF77BFBFFF7F0
:101AB000D5FCFFF73FFEFFF769FE00F03BF800F0B2
:101AC000C5F800F045F900F0DDF900F037FA00F054
:101AD0007DFA00F0AFFC00F01DFD00F063FB00F0AC
:101AE00067FD00F091FB00F0B1FD00F0DBFD00F0C0
:101AF000F7FDFFF777FF084820F03CFA02F000FA04
:101B000002F00BFAFFF796FC0BF01DF9FFF77EFFD2
:101B1000FCE700BF00ED00E000AA02080268034BEA
:101B20009A4201D102F0C4BE704700BF00100040CD
:101B30007047704708B50B48FF230B4A80E80C003C
:101B400000230122C3608260026143618361C3613B
:101B5000036205F0ADFB18B1BDE80840FFF7E8BF30
:101B600008BD00BF309D0220001000A02DE9F0410B
:101B700014228AB0044600210DEB020020F0EAF89E
:101B800022682D4B9A4253D12C4B0225032409265F
:101B90009A6B4FF0040805A9294842F00202002779
:101BA0009A639A6B02F002020192019A1A6B42F058
:101BB00010021A631A6B02F010020292029A1A6B58
:101BC00042F002021A631A6B02F002020392039AB5
:101BD0001A6B42F008021A631B6BCDF8148003F0F5
:101BE0000803069508940493049B099603F00AFCE5
:101BF000402305A9134805930A23069509930797DF
:101C0000089403F0FFFB05A90E48CDF81480069553
:101C100007970894099603F0F5FB4FF4605305A964
:101C200009480593069507970894099603F0EAFB7F
:101C30000AB0BDE8F08100BF001000A000380240EB
:101C40000010024000040240000C024010B592B0A7
:101C500000241822002101A820F07CF82C22214623
:101C600007A8009420F076F83048314B04614461B5
:101C7000846180E818007F238360FF23C36006F03F
:101C800003FC08B1FFF754FF012201A927488DF892
:101C900004408DF805408DF806400594069406F042
:101CA00089FC08B1FFF744FF0122002469461F4860
:101CB0008DF800208DF801208DF802208DF803406A
:101CC00006F05EFD08B1FFF733FF8DF81C404FF4BE
:101CD00080738DF81D4007A98DF81E4008940B9461
:101CE0000C940D940E940F940124104822468DF804
:101CF0004040119306F0FCFD08B1FFF719FF4FF4C7
:101D00000073012207A909488DF84040119306F09D
:101D1000EFFD08B1FFF70CFF02220021034806F097
:101D20004BFF08B1FFF704FF12B010BD7C9D0220ED
:101D3000002800400268044B9A4204D1034A136F02
:101D400043F4004313677047002800400038024006
:101D50001E48402208B542631D4A1E4BC26108223C
:101D60000360002302640122036343608363C3634F
:101D70008360036143618361C36043628362C362C2
:101D800042648364C364036543658365C265036617
:101D900006F06CFF08B1FFF7CBFE0F484BF6803220
:101DA0000E4BC2610360042303630023436083601E
:101DB00003618361C3604362836206F057FF18B119
:101DC000BDE80840FFF7B4BE08BD00BF209E02205A
:101DD00000EE0200045C01409C9D0220245C014056
:101DE0000268224B9A4210B5044688B01BD1204BA2
:101DF0001A684AB91F49486C40F400004864496CAD
:101E000001F4000101910199013203A91A481A60F5
:101E1000F0230393022304930023059306930A23DC
:101E2000079303F0EFFA2268144B9A421CD1104B2F
:101E30001A684AB90F49486C40F400004864496C7C
:101E400001F4000102910299013203A90C481A60C1
:101E50004FF48063039302230493002305930693B6
:101E60000A23079303F0CEFA08B010BD045C0140CA
:101E7000400500200038024000200240245C014060
:101E800000180240054B064A1A6000225A609A6008
:101E9000DA601A615A619A61704700BFA49E0220FD
:101EA000002C014070B588B004461422002103A81C
:101EB0001FF050FF22681E4B9A4236D103F586333D
:101EC0000C24022603255A6C0DEB0401194842F438
:101ED00000625A645A6C02F400620092009A1A6B13
:101EE00042F004021A631A6B02F004020192019A92
:101EF0001A6B42F008021A631B6B049603F0080386
:101F0000069507940293029B4FF4F853039303F052
:101F100079FA04230DEB0401074803930023049688
:101F200005930695079403F06DFA08B070BD00BFE5
:101F3000002C014000080240000C024008B50B488C
:101F40004FF040230360002343608360C36003615C
:101F500043618361C36103624362836207F058FD9A
:101F600018B1BDE80840FFF7E3BD08BD289F022077
:101F700010B588B004461422002103A81FF0EAFE21
:101F80002368B3F1402F1DD103F5FC3303A90E489C
:101F90001A6C42F480321A641A6C02F48032019294
:101FA000019A1A6B42F008021A631B6B03F00803D4
:101FB0000293029B80230393022304930823079335
:101FC00003F020FA08B010BD000C024008B510481C
:101FD0004FF482734FF440720E49C2604FF40072A6
:101FE00080E80A0000238261072283600361436165
:101FF000C36103624362836203630823C262436373
:1020000007F094FD18B1BDE80840FFF791BD08BD89
:10201000749F02200038004030B589B00446142275
:10202000002103A81FF096FE22681B4B9A4231D173
:1020300003F500330224052503A91A6C174842F45E
:1020400080421A641A6C02F480420092009A1A6B61
:1020500042F480721A631A6B02F480720192019A40
:102060001A6B42F002021A631B6B039403F0020323
:10207000049407950293029B03F0C4F94FF4404384
:1020800003A9074803930023049405930693079537
:1020900003F0B8F909B030BD00380040002002401C
:1020A000000402400E4B07B51A6C0F216FF00100BF
:1020B00042F080521A641A6C02F080520092009A28
:1020C0005A6C42F480425A6400225B6C03F48043F1
:1020D0000193019B02F026FE03B05DF804FB00BFF4
:1020E0000038024010B5014688B00022362002F0C8
:1020F00019FE362002F05EFE144B01A903A81A6CEB
:10210000134C42F010021A641B6C03F0100302938C
:10211000029B05F0D5FC05F0B3FC0E4B400023609C
:1021200040F2E733E3600C4BB0FBF3F001380023DF
:10213000606020462361A36008F096F820B920462D
:1021400007F020FF08B010BD0120FBE70038024077
:10215000D89F02200010004040420F007047FEE769
:10216000FEE7FEE7FEE77047014807F067BF00BFE4
:1021700098A00220014807F061BF00BFD89F02204D
:10218000014803F08BBC00BFF8AB0220014804F00B
:10219000B9BD00BF04A70220014803F02FB800BF5B
:1021A000ACA7022010B588B014220021002403A897
:1021B0001FF0D0FD1248134B0094019402948460E8
:1021C000C4600461846180E8180008F04DF808B12B
:1021D000FFF7AEFC042303A909480393049408F015
:1021E000E5FE08B1FFF7A4FC00236946044800930C
:1021F000029308F041FF08B1FFF79AFC08B010BD48
:1022000098A002200004004000B5102289B00021EF
:102210000DEB02001FF09EFD00231448144A0193A9
:10222000029303938360C36003614361836180E829
:102230000C0008F019F808B1FFF77AFC4FF480534E
:1022400004A90A48049308F0EFFA08B1FFF770FCFC
:10225000002301A9054801930293039308F00CFFA2
:1022600008B1FFF765FC09B05DF804FB18A0022077
:1022700000040140036886B0284A93420BD1284BE2
:102280005A6C42F001025A645B6C03F00103009344
:10229000009B06B07047B3F1804F0BD103F50E33AE
:1022A0001A6C42F001021A641B6C03F001030193E3
:1022B000019BEEE71B4A934213D1194B1A6C42F073
:1022C00002021A641A6C02F002020292029A1A6B5B
:1022D00042F002021A631B6B03F002030393039B99
:1022E000D7E7114A93420AD10D4B1A6C42F008020B
:1022F0001A641B6C03F008030493049BC9E70B4AA0
:102300009342C6D1064B5A6C42F002025A645B6C8F
:1023100003F002030593059BBBE700BF00000140EB
:102320000038024000040040000C0040000401405E
:10233000026882B0074B9A420AD103F508331A6C3F
:1023400042F040021A641B6C03F040030193019BAE
:1023500002B070470018004010B514228AB004463D
:1023600000210DEB02001FF0F5FC23682A4A93427E
:1023700016D12A4B1A6B42F001021A631B6B03F051
:1023800001030193019B4FF480730593022305A978
:10239000234806930123099303F034F80AB010BDD3
:1023A000B3F1804F0DD103F50E331A6B42F00102E9
:1023B0001A631B6B03F001030293029B4FF400436B
:1023C000E3E7184A934211D1144B05A916481A6B3A
:1023D00042F480721A631B6B03F480730393039BB4
:1023E00001230593022306930993D5E70F4A9342ED
:1023F000D4D10A4B05A90E481A6B42F080021A6329
:102400001B6B03F080030493049B4023059302237A
:10241000069309230993BFE70000014000380240FA
:1024200000000240000C0040002002400018004064
:10243000001C024010B510229AB0002400210DEBC0
:1024400002001FF087FC1C22214608A80194029478
:1024500003941FF07FFC2C2221460FA81FF07AFC6A
:102460002A482B4B8460C46004614461846180E825
:10247000180007F0F9FE08B1FFF75AFB4FF480533C
:1024800004A92248049308F0CFF908B1FFF750FBE4
:102490001E4807F069FF08B1FFF74AFB002401A9B5
:1024A0001A4801940294039408F0E6FD08B1FFF77E
:1024B0003FFB6023002208A91448089309940A945A
:1024C0000B940C940D940E9408F02AF808B1FFF7C1
:1024D0002FFB4FF4005200230FA90C4814924FF029
:1024E00000720F93109311931293139315931693F5
:1024F00017921893199308F03BFE08B1FFF718FBE9
:102500000248FFF729FF1AB010BD00BFD8A0022073
:102510000000014010B58EB010220021002403A855
:102520001FF018FC1C22214600940DEB02000194C0
:1025300002941FF00FFC1D484FF080438460C4607C
:102540000461846180E8180007F08EFE08B1FFF78F
:10255000EFFA4FF4805303A91448039308F064F989
:1025600008B1FFF7E5FA114807F0FEFE08B1FFF7E2
:10257000DFFA002469460D480094029408F07CFDBF
:1025800008B1FFF7D5FA6023002207A9074807938F
:10259000089409940B9407F0C3FF08B1FFF7C8FA39
:1025A0000248FFF7D9FE0EB010BD00BF18A10220EF
:1025B00010B58EB010220021002403A81FF0CAFB22
:1025C0001C22214600940DEB0200019402941FF09E
:1025D000C1FB1C481C4B8460C4600461846180E8BA
:1025E000180007F041FE08B1FFF7A2FA4FF480533C
:1025F00003A91448039308F017F908B1FFF798FAF4
:10260000104807F0B1FE08B1FFF792FA00246946BE
:102610000C480094029408F02FFD08B1FFF788FAE7
:1026200060230C2207A907480793089409940B9488
:1026300007F076FF08B1FFF77BFA0248FFF78CFE40
:102640000EB010BD58A00220000C004010B588B09C
:102650001C220021002401A81FF07CFB0F48104B16
:102660008460C4600461846180E8180007F07CFE27
:1026700008B1FFF75DFA6023002201A90748019322
:1026800002940394059407F04BFF08B1FFF750FA4A
:102690000248FFF761FE08B010BD00BF58A102203C
:1026A0000018004008B50C484FF4E13E0B4B0C22DB
:1026B00080E80840002342618360C3600361836156
:1026C000C3610362436209F093F918B1BDE80840A1
:1026D000FFF72EBA08BD00BF98A1022000100140EC
:1026E00008B50C484FF4E13E0B4B0C2280E8084043
:1026F000002342618360C36003618361C36103623D
:10270000436209F075F918B1BDE80840FFF710BA47
:1027100008BD00BF18A202200014014030B51422E9
:102720008BB0044600210DEB02001FF013FB236861
:102730002B4A934233D12B4B0225072405A95A6C0F
:10274000294842F010025A645A6C02F010020092BA
:10275000009A1A6B42F002021A631A6B02F002022C
:102760000192019A1A6B42F001021A631B6B0695E3
:1027700003F0010309940293029B8023059302F066
:1027800041FE4FF4007305A91848059300230695F0
:1027900007930893099402F035FE0BB030BD144A3C
:1027A0009342FAD10F4B05A912485A6C42F020020D
:1027B0005A645A6C02F020020392039A1A6B42F098
:1027C00004021A631B6B03F004030493049BC023ED
:1027D0000593022306930323089308230993DAE75A
:1027E0000010014000380240000402400000024096
:1027F000001401400008024008B5034903480AF0EC
:102800009FFA034B187008BD99A2022004AA02087F
:1028100098A2022008B513460A460146034806F06E
:102820007DFC003018BF012008BD00BFA49E02201F
:1028300008B513460A460146034806F0F1FC00308D
:1028400018BF012008BD00BFA49E022008B50348A0
:1028500007F052F8043818BF012008BDA49E0220DA
:102860000146014806F0ACBFA49E022008B500F066
:1028700057F908BD012307B58DF8073000F01EF8A1
:1028800008B98DF807009DF8070003B05DF804FB58
:1028900008B5FFF7EFFF01280CD1074806F02EFF1F
:1028A00048B94FF40061044806F09CFF003018BF9F
:1028B000012008BD022008BDA49E022008B54FF4E7
:1028C0000051034802F0BCFFB0FA80F0400908BD97
:1028D0000008024010B50123054C2370FFF7B6FF36
:1028E000234618B9227802F0FE022270187810BD33
:1028F0008C00002037B501230E4C23700AF028FA13
:10290000A0B1FFF7C5FF10B9FFF7E4FF20702378EF
:10291000012B0BD0084D2A6842B9084903C98DE83C
:102920000300114668460AF0A9FA2860207803B02F
:1029300030BD00BF8C00002044050020143A02087E
:10294000FFF7C8BF124B10B51B7888B01446DB07E1
:102950001BD4032903D8DFE801F010050B12042073
:1029600008B010BD6846FFF77BFF069B236004E0BC
:102970006846FFF775FF079B23800020F0E7684655
:10298000FFF76EFF079B5B0AF0E70320E8E700BF55
:102990008C00002038B50AF0E3F947F22F540546C1
:1029A0000AF0DEF9401BA04202D94FF0FF3003E0ED
:1029B000FFF74CFF0028F3D138BD00002DE9F043AC
:1029C00085B00C4617461E46FFF7E4FF002803DAE1
:1029D000012005B0BDE8F083A3070AD00025DFF889
:1029E0009480DFF88C90B54205EB070123D10020DD
:1029F000EFE7324639462046FFF71AFF0028E7D1B5
:102A00001B4B47F2305201A819680AF063FA019B88
:102A1000102BDDD1029B022BDAD10AF0A1F900F5CF
:102A2000EA4430340AF09CF98442D1D9FFF70EFF12
:102A30000028F7D1CDE701220E48FFF7F9FE002864
:102A4000C6D147F23052D9F8001001A80AF042FA74
:102A5000019B102B0AD1029B022B07D1204604F5C3
:102A600000744FF4007241461FF04FF90135BAE788
:102A700044050020480500202DE9F04385B00C46B0
:102A800017461E46FFF786FF002803DA012005B02F
:102A9000BDE8F083A3070AD00025DFF88080DFF8C7
:102AA0007890B54205EB070118D10020EFE73246D8
:102AB00039462046FFF7AEFE0028E7D1164B47F215
:102AC000305201A819680AF005FA019B102BDDD1DC
:102AD000029810F1FF3018BF0120D8E701220F48FB
:102AE000FFF798FE0028D1D147F23052D9F80010F4
:102AF00001A80AF0EFF9019B102B0AD1029B012BD0
:102B000007D1204604F500744FF4007241461FF0CF
:102B1000FCF80135C5E700BF44050020480500204A
:102B2000034B4FF0FF32012118680AF0ABB900BF28
:102B30004405002030B58FB0044603A86D4601F06F
:102B4000C3FD104B9DF80C2019788DF80820914298
:102B500011D0BDF80E1021B1BDF818200AB159806E
:102B60009A81002228468DF809205A889B89009274
:102B7000019313F039FB95E8070084E8070020462D
:102B80000FB030BD4807002008B50FF08FFE0020C1
:102B90000FF0EEFC0FF00CFE002011F02BFC0020DB
:102BA0000FF094FD6FF07F400FF0EEFC04480FF043
:102BB0004DFD06200DF0A4F9BDE808400DF0C4B9A4
:102BC00000420208000000002DE9F04FADF5797DCC
:102BD0000024FFF7D9FF002500204FF0000B00264E
:102BE000994F0DF1480A0FF0C3FC0FF0E1FD6FF0B3
:102BF0007F400FF0C9FC0FF24029D9E90089224635
:102C00002B4620462946FDF709FB42464B46FDF779
:102C1000B7FC32463B46FDF7DDFD41EC100B1FF0E3
:102C200017FE0022894B51EC100BFDF7A9FC002286
:102C3000874BFDF7F3FAFDF753FF2AF81B000BF162
:102C4000010B204629467EA3D3E90023FDF7E6FACF
:102C5000BBF5E67F04460D46D1D17E4804240FF033
:102C600093FC02200FF028FC20462C344FF4EB722A
:102C70000A2110F021FAB4F59C7FF5D10A242046F0
:102C80002E344FF48672042110F088FAB4F5017FD7
:102C9000F5D10620704C0FF00FFC70480FF074FC5B
:102CA00045230A224FF4E671504606AD10F078F93C
:102CB00044230A224FF4E67150460CAF10F070F92D
:102CC00043230A224FF4E671504610F069F942237B
:102CD0000A224FF4E671504610F062F94FF4FA50B0
:102CE00001F0F8FDFFF750FF5D480FF041FC0FF0D9
:102CF0005FFD01200FF0E0FB0FCC0FC594E803004F
:102D0000083485E803000FCC3D460FC594E8030066
:102D1000002485E80300264605ADA14655F8048F3A
:102D200057F8240001340FF02FFC33467822882115
:102D300096208DE8000310F0EBF9062C79D16FF0A6
:102D40007F400A240FF020FC96224FF4A0714548E2
:102D500010F004F94FF4FA6001F0BCFDFFF714FF26
:102D60004FF47F400FF004FC0FF022FDFF200FF026
:102D70000BFC224620460A343C231E2110F094FD11
:102D8000B4F5F07FF5D10A2422460334A021502067
:102D90000FF080F9342CF7D1C8240025324E334887
:102DA0000FF0F2FB06FA05F006350FF0EDFBA4F18B
:102DB000320120460F341E220FF00EFAB4F5827F46
:102DC000F0D1012005242A4D0FF034FC6E238C2213
:102DD0000321274811F064FE23460322294603A855
:102DE000053411F017FF6E238C22032103A811F084
:102DF00057FE322CF0D14FF4FA6001F06BFD4FF426
:102E000000000FF0B5FB0FF0D3FC4FF6FF700FF092
:102E1000BBFB18480FF01AFC64220A21164810F078
:102E200089F84FF4FA6001F055FD0DF5797DBDE8A4
:102E3000F08F2E6872E700BF182D4454FB21094023
:102E400091852C64210BE93F00806640000051C051
:102E500000005140906830FF1C3A020840FF00FF1C
:102E60008080800024AA0208F0FF0F0000FFFF000E
:102E700018AA0208B483020828AA02082DE9FF470D
:102E800000250FF013FDFFF77FFE00F051F844F628
:102E9000206001F01FFDA946FFF796FE2E46002098
:102EA0000FF066FB0FF084FC0B200FF005FB01A870
:102EB000FFF740FE9DF80C30A3B3019FDDF80880BA
:102EC000A5B3FEF78FFA0446FEF78CFA8246FEF7AA
:102ED00089FAFF23B0FBF3F2C2EB0222801ABAFB9D
:102EE000F3F2B4FBF3F3C3EB032340F07F40C2EBF8
:102EF0000222E41AAAEB020A240440EA0A2004F49B
:102F00007F0420430FF040FB43463A464946304693
:102F10000DF040F811F008FE052013F07DFAC146CF
:102F20003E46C4E7C84637461D46F3E70125F1E7AC
:102F300007B54FF400000FF01BFB0FF039FC4FF604
:102F4000FF700FF021FB06200CF0DAFF1E200FF0BF
:102F5000B3FA3F233C2226211E200DF0D3FE0F237F
:102F6000E1224B21009396207D2310F011FE1E22BA
:102F700096212D200FF08EF864228821F02003B0D6
:102F80005DF804EB0CF004BD4FF4DC3101480EF0A9
:102F90007FBE00BF7407002030B5294C8FB00025DC
:102FA000204603F0A1FE274B2046A560E560256181
:102FB00084F8345084F8355084F8365084E828007A
:102FC000282363610923A3613523E3610B23236273
:102FD00040F21523636240F21B13A36240F23523D3
:102FE000E36240F21D13236303F0A4FD08B1FEF772
:102FF0009FFD02214FF4F0724FF488731048059141
:10300000FF21029206914FF4C0610B9200220891B9
:103010000721019509914FF0404103950A9101A9BB
:10302000049307950C938DF834508DF835508DF836
:10303000365003F0C5FE08B1FEF77AFD0FB030BD83
:1030400004A702200068014015481022154B0421F6
:1030500000B50261402289B0036042614FF4C07242
:103060000023C16082614FF40062436002624FF44A
:103070008052836042620722C3618362022302920C
:1030800004920322039169440193059206930793E6
:1030900006F074FC08B1FEF74BFD09B05DF804FBC7
:1030A000ECA70220400100A02DE9F341224C0126AB
:1030B000224D4FF00008102721464FF6FF72284698
:1030C000CDF80480A660C4F80C8084E8C00006F047
:1030D00075FC304601F0FEFB022321464FF6FF72DD
:1030E0002846A660C4F80C8084E8880006F066FCD8
:1030F000032321464FF6FF722846C4F80C8084E86B
:1031000088000823A36006F059FC4FF40C734FF6B7
:10311000FF722146284601930423A66084E88800B4
:10312000019BE36006F04AFC40F26F61284606F01E
:103130005CFC02B0BDE8F08174BF0120ECA7022066
:1031400008B50D480D4B036000238362C36203631F
:10315000436343608360C36001F0FCFF08B1FEF786
:10316000E7FC0121044802F0D3F818B1BDE808409B
:10317000FEF7DEBC08BD00BFACA7022000B00240D5
:103180000268404B9A4270B58CB078D103F5504339
:10319000002402250E265A6C07A93B4842F08062A3
:1031A0005A645A6C02F080620192019A1A6B42F0E2
:1031B00010021A631A6B02F010020292029A1A6B42
:1031C00042F400721A631A6B02F400720392039ABB
:1031D0001A6B42F480621A631A6B02F480620492E2
:1031E000049A1A6B42F040021A631A6B02F0400212
:1031F0000592059A1A6B42F480721A631B6B08954C
:1032000003F480730693069B1023079309940A9492
:103210000B9602F0F7F84EF6FF7307A91B480793C9
:10322000089509940A940B9602F0ECF8F72307A985
:1032300017480793089509940A940B9602F0E2F850
:103240004FF4805307A913480793092308950B935C
:1032500009940A9402F0D6F84FF4464307A90E48A1
:103260000793089509940A940B9602F0CBF858201E
:103270002246052101F056FD582001F09BFD0CB0BF
:1032800070BD00BF006801400010024000240240F1
:1032900000280240001802400020024008B50268E1
:1032A000124B9A4220D1124A10211248536C23F03B
:1032B0008063536402F0FAF94EF6FF710E4802F093
:1032C000F5F9F7210D4802F0F1F94FF480510C485F
:1032D00002F0ECF90B484FF4464102F0E7F95820B0
:1032E000BDE8084001F07ABD08BD00BF006801409C
:1032F0000038024000100240002402400028024032
:1033000000180240002002402B4BF0B51C6887B02B
:10331000002C4ED10122022703260C251A6001A998
:10332000264B27489A6B42F001029A639B6B0297E7
:1033300003F00103039404960093009B4FF68373FC
:103340000595019302F05EF848F2331301A91D4878
:103350000193029703940496059502F053F84CF2FA
:10336000037301A9184801930297039404960595E5
:1033700002F048F84FF63F0301A914480193029761
:1033800003940496059502F03DF8282301A91048FE
:103390000193029703940496059502F033F80823ED
:1033A00001A90C480193029703940496059502F035
:1033B00029F807B0F0BD00BF84BF012000380240EB
:1033C0000010024000180240000C024000140240AD
:1033D000001C02400008024007B50D4B02689A42EB
:1033E00012D1A3F5F0435A2005211A6B42F40002D2
:1033F0001A6300221B6B03F400030193019B01F08D
:1034000091FC5A2001F0D6FC03B05DF804FB00BF2C
:1034100000B002400022014B1A70704788BF0120A3
:10342000044A1C2303FB0023DA6818695B695043D4
:10343000584370478C190220024B1A78002AFCD19D
:10344000704700BF88BF0120F8B5069D17461E468D
:10345000FFF7F2FF01220C4B0C4C2D041A704FF4B5
:10346000813315432360E060E16300212161216421
:10347000E76166636564236843F400731343236064
:10348000BDE8F840FFF7D8BF88BF012000B0024078
:103490002DE9F843099F90460A9E89461D460899E2
:1034A000FFF7CAFF01220E4BADB20E4C1A7045EA6F
:1034B00008450D4B23600023C4F80C906061E06365
:1034C0002161A7612764E3616662666365642368BE
:1034D00043F4007313432360BDE8F843FFF7ACBF28
:1034E00088BF012000B0024000020200F0B50024B5
:1034F00085B0042702940A9D0B9C95FBF7F594FB7D
:10350000F7F4AD1AA41A01950094FFF7C1FF05B0B6
:10351000F0BD0000012835D8224B234A53F8203053
:103520002249934218BF8B422CD0214A934229D082
:10353000204A934228D0204A934225D01F4A9342E2
:1035400024D01F4A934221D01E4A934220D01E4AC3
:1035500093421FD01D4A1E498B4218BF93421D49FA
:103560000CBF012200228B4208BF42F001029AB92F
:10357000194A934210D0194A93420FD0184A9342E5
:103580000ED0FEE7002070470120704702207047F0
:1035900003207047042070470520704706207047BD
:1035A0000720704734AA0208B83B0208283B0208EB
:1035B000703B0208A03B0208583B0208403B02084F
:1035C000883B0208F83A0208103B0208803A0208D9
:1035D000983A0208B03A0208C83A0208683A020863
:1035E000E03A02082DE9F047089D8A4691461E46BA
:1035F000DDF82480ADB20A9FFFF71EFF0D4B0122BC
:103600000D4C45EA06451A70FFF784FF4FF400732E
:103610002360C4F80CA0C4F83C90C4F81080276460
:10362000E0616564236843F001032360BDE8F0476F
:10363000FFF702BF88BF012000B00240F0B585B09F
:1036400015460646FFF7ECFE1C230A4A7343D7587B
:10365000D418002300FB057202930193236900FB39
:10366000017130460093E368FFF7BCFFA56005B029
:10367000F0BD00BF8C1902202DE9F04707461C263B
:103680009A4614467E43FFF7CBFE114B08AD9A19BC
:103690009B5995E82003D668D2F814E0526804FBE1
:1036A0000614CDF82090504305FB06A2A6EB0806B1
:1036B0000EFB04340EFB02320023211809960A93F4
:1036C000024443463846BDE8F047FFF78BBF00BFD2
:1036D0008C1902202DE9F14F074698461446FFF752
:1036E0009FFE1C23144A0C9D7B43DDF82890DDF8D7
:1036F0002CA002EB030EDEF80C6004FB0614D1587C
:10370000DEF81430A6EB0906DEF8082003FB0414EB
:10371000022341460C9602FB00423846CDF828A011
:1037200095FBF3F54B46A5EB09050B9501B0BDE8FC
:10373000F04FFFF757BF00BF8C1902202DE9F0476B
:1037400081469A461746FFF76BFE1C221F4B0A9EC6
:1037500002FB09F2DDF82080099C03EB020E9A5867
:103760000423A4B2DEF80C5044EA084407FB051712
:10377000DEF81410A5EB080501FB0727DEF808208A
:1037800096FBF3F602FB0077FFF756FE0122104B83
:103790004846A6EB08061A70FFF7BCFE0D4A0E4B12
:1037A00013600023C2F80CA0D7635761166115643B
:1037B0009561D361506250635464136843F0010310
:1037C000BDE8F0471360FFF737BE00BF8C19022039
:1037D00088BF012000B00240000202002DE9F74F2F
:1037E00006461C27984601911446FFF793FE834630
:1037F0003046FFF715FE7743144A019902EB070E96
:10380000D2590E9DDEF80C60DEF8143004FB06146D
:10381000DDF83090DEF80870414603FB04240423F1
:10382000DDF834A0A6EB09064A4607FB0040CDF8B8
:1038300038B00D9695FBF3F55346A5EB09050C95AD
:1038400003B0BDE8F04FFFF723BE00BF8C19022084
:103850002DE9F74F81461C269A46019106FB09F691
:103860001446FFF7DDFD1B4A01999319DDF83080FE
:103870000D9FDD68DDF838B047EA084704FB051402
:1038800091595A69ABEB0806A5EB080502FB041435
:103890009A6802FB00444846FFF73CFEFFF7CCFD68
:1038A00001220D4B1A704FF481330C4A136005232B
:1038B000C2F80CA0D46316611564D36150635764D9
:1038C000136843F00103136003B0BDE8F04FFFF746
:1038D000B3BD00BF8C19022088BF012000B0024098
:1038E00073B514460D461A4600230094FFF7ACFD4D
:1038F0002B462146032903F110030AD8A30805EB40
:103900000311A4EB830401EB8404A14243D102B070
:1039100070BD53F8102C04391606C2F3074040EA74
:10392000162002F47F46D243304302F07F42024326
:1039300043F8102C53F80C2C1606C2F3074040EA4B
:10394000162002F47F46D243304302F07F42024306
:1039500043F80C2C53F8082C1606C2F3074040EA33
:10396000162002F47F46D243304302F07F420243E6
:1039700043F8082C53F8042C1606C2F3074040EA1B
:10398000162002F47F46D243304302F07F420243C6
:1039900043F8042CAEE70B681806C3F3074242EA6B
:1039A000102203F47F40DB43024303F07F431343C1
:1039B00041F8043BA9E70023FFF792BF0423FFF778
:1039C0008FBF0223FFF78CBF0323FFF789BF0000DF
:1039D000F7B506463D4D1746032F06F1100605F1D3
:1039E000100511D894083A4F2501A2EB84042F4406
:1039F000284407EB8406B74254D100920022344891
:103A0000FFF722FD03B0F0BD56F8104C043F4FEA1B
:103A1000046CC4F3074E4EEA1C2E04F47F4CE443BE
:103A20004EEA0C0E04F07F444EEA040445F8204CA4
:103A300056F80C4C4FEA046CC4F3074E4EEA1C2EA9
:103A400004F47F4CE4434EEA0C0E04F07F444EEA4B
:103A5000040445F81C4C56F8084C4FEA046CC4F3B7
:103A6000074E4EEA1C2E04F47F4CE4434EEA0C0E43
:103A700004F07F444EEA040445F8184C56F8044C10
:103A80004FEA046CC4F3074E4EEA1C2E04F47F4C3C
:103A9000E4434EEA0C0E04F07F444EEA040445F879
:103AA000144C99E750F8044B4FEA046EC4F30745F1
:103AB00045EA1E2504F47F4EE44345EA0E0504F072
:103AC0007F442C4347F8044B95E700BF9CBF01207F
:103AD0008CBF01200023FFF77BBF0423FFF778BFD3
:103AE0000223FFF775BF0323FFF772BF2DE9F047ED
:103AF000089C81460E4617461D46DDF824800EF0D0
:103B0000CFFB012811D100221921484614F0FAFCFC
:103B10002A4639463046234613F0D6FC4846204A0A
:103B20001921BDE8F04714F0EDBC4846AD1BFFF786
:103B300077FC1C211B4AE41B01FB09F10135013410
:103B400002EB010E5158A4B2DEF80C30DEF814205E
:103B500044EA054403FB0766A3EB050A02FB0616CD
:103B6000DEF8082002FB0066FFF766FC01220E4B20
:103B700048461A70FFF7CEFC0C4B0D4A1A60C3F88A
:103B80003880DE63C3F840A058635C641A6842F46E
:103B9000007242F00102BDE8F0471A60FFF74CBC2A
:103BA000ED3A00088C19022088BF012000B00240C5
:103BB000000203000023FFF793BE0023FFF708BFB6
:103BC00008B50948094B036101F0C4FA08B1FDF7D3
:103BD000AFFF0121044801F09BFB18B1BDE808408C
:103BE000FDF7A6BF08BD00BFACA702201534000832
:103BF000F8B50646134C00254FF0FF3761680029E1
:103C000015DBE26823696069534322684B4300FB7C
:103C10000323326802F1840000EBC510836228465A
:103C2000536A43F00103536210F0B4FF676001353B
:103C30001C34032DE2D130460021BDE8F84003F0EA
:103C4000A9BA00BF8C1902200023514951481A46D5
:103C50002DE9F0410EF0E4FF002014F07FF9044656
:103C600000287DD04FF4F0724FF48871002014F0DA
:103C700097FC4FF4F0724FF48871002014F0C2FCEE
:103C800001230022424943480EF0CAFF012014F0EC
:103C900065F9002870D04FF4F0724FF4887101205C
:103CA00014F07EFC4FF4F0724FF4887101203A4D0D
:103CB00014F0A8FC4FF040430024DFF828812B606B
:103CC00003F5FF23354F364EEB6158F8243020467C
:103CD000AB614FF0FF336B6014F000F9C0103A464F
:103CE00021216861204614F00DFC32462321204634
:103CF00014F008FC2B4A1921204614F003FC2A4A30
:103D00002521204614F0FEFB284A2421204614F0E9
:103D1000F9FB274A2821204614F0F4FB2046013401
:103D200055F81C1B14F056FC032CCED12149224817
:103D30000CF004FD214922480CF092FF2149224851
:103D40000CF0B8FD214922480CF0B0FF214922486F
:103D50000CF0D0FD21492248BDE8F04112F0ECBD45
:103D60004FF488724FF4F07114F01AFC4FF488721B
:103D70004FF4F071204681E74FF488724FF4F071F0
:103D8000012014F00DFC4FF488724FF4F0718DE7B0
:103D9000403B0208CC4102088C1902203D36000845
:103DA00079360008ED3A000851380008D536000889
:103DB0003D370008C9390008E73A0008C339000850
:103DC000E13A0008BD390008DB3A0008B7390008BD
:103DD000D53A0008B53B0008BB3B0008DD370008BA
:103DE000ED34000834AA020837B5033904461546F5
:103DF0000B297ED8DFE801F00620272E4E48345EDE
:103E00007D646E191C233C4A6D684343D018D35817
:103E10002246C1684069694300FB0131374803F01D
:103E20008FF90025284603B030BD1C23324A03FB1E
:103E300000242B686360F4E70346012229462F48DB
:103E400003F07CF8EDE72D4B1A68936943F001030A
:103E50009361E6E7294B1A68936923F00103F7E7BA
:103E60001368C401254A012B1368126803F1840307
:103E700019590CBF41F0010121F001011951536A98
:103E800043F001035362CCE7034606CA1B4803F024
:103E9000E3F8C6E701AA694610F0C4FF164A1C23DE
:103EA00003FB04232A68DA606A681A6123469DE8E6
:103EB0000600EBE702462968104803F011F9B0E765
:103EC000156801460D4815B103F080F8A9E703F025
:103ED0009FF8A7E713681A04C3F3074103F47F436D
:103EE00002F47F02114302460448194303F000F82C
:103EF00097E74FF0FF3595E78C19022004A70220C1
:103F000008B5FFF7A1F8FFF7CFF8FFF745F8FFF77F
:103F100017F9BDE80840FFF753BE0EF0C7BC00001C
:103F200004290AD0052904D0022905D1044B1970AF
:103F300070470322024B1A7070470122FAE700BF54
:103F4000E019022008B501220B490C480AF06AFE6C
:103F500008B1FDF7EDFD0A4908480AF097FE08B1DF
:103F6000FDF7E6FD05480AF0C3FE18B1BDE80840BC
:103F7000FDF7DEBD08BD00BF213F000820A80220DC
:103F8000C40000200368B3F1A04F30B589B032D12E
:103F90001A4C002503A91A48236B43F0010323633D
:103FA000236B059503F001030093009B4FF4E0534E
:103FB000039302230493032306930A23079301F038
:103FC00021FA636B43202A46052143F08003636393
:103FD000636B03F080030193019B636C43F48043A4
:103FE0006364636C03F480430293029B00F09AFEC7
:103FF000432000F0DFFE09B030BD00BF00380240B2
:1040000000000240D0F8C0020BF017B8D0F8C00290
:104010000BF029B8D0F8C0020BF042B8D0F8C002BB
:104020000BF062B8D0F8C0020BF015B8D0F8C0029F
:104030000BF015B810B590F8C0330446012B1CD115
:104040000F484FF0A043022203600823C4F8C403C2
:1040500083600323C0F8C042C36000238261036110
:10406000C36101F065FC08B1FDF762FD044802F090
:1040700061F8014620460AF0DDFF002010BD00BFB8
:10408000F8AB022008B5D0F8C40302F01DF80328ED
:104090009ABF024B185C022008BD00BF3FAA02086D
:1040A00008B5D0F8C40302F025F803289ABF024BE4
:1040B000185C022008BD00BF3FAA020808B5D0F86E
:1040C000C40302F03AF802289ABF024B185C0120A0
:1040D00008BD00BF3CAA020808B5D0F8C40302F02E
:1040E0001BF803289ABF024B185C022008BD00BFD2
:1040F0003FAA0208D0F8C40302F017B81FB5BDF8F4
:10410000204002949DF81C4001949DF818400094B2
:10411000D0F8C40301F0C0FB032896BF024B022075
:10412000185C04B010BD00BF3FAA020808B5D0F863
:10413000C40301F0EAFB03289ABF024B185C02207B
:1041400008BD00BF3FAA02081FB59DF82440039494
:10415000BDF820400294079C01949DF818400094FB
:10416000D0F8C40301F038FC032896BF024B0220AC
:10417000185C04B010BD00BF3FAA0208D0F8C40309
:1041800001F0CDBF08B590F8C033012B02D108462D
:1041900000F016F8C82000F09DFB002008BD282381
:1041A000D0F8C40303FB010191F83B301BB181F847
:1041B00050200020704781F85120FAE700F08ABBB8
:1041C000B0FA80F220210248520901F04BBB00BF37
:1041D000000C0240002070477047000037B50023F4
:1041E0000F4C05468DF8073023781BB900F0E8F92D
:1041F000012323700324EDB2013CA821284600F0DE
:10420000F5F914F0FF048DF807009DF80730DBB2D4
:1042100003D19DF8070003B030BD512BECD1F8E776
:10422000E419022013B500240221C0B28DF8074022
:1042300000F0DCF98DF807009DF8073003F00F035C
:104240008DF807309DF80730052B01D98DF8074010
:104250009DF80720034B9DF807005A7000229A70C2
:1042600002B010BDE41902202DE9F74F294D174681
:1042700000248946AB786A788DF807409A4241D984
:10428000092B42D8244AD15C244A12F803B0244AAC
:1042900012F803A0234AD45C5FFA80F8224E40460D
:1042A00000F0A4F98DF807009DF807305946404604
:1042B000338000F09BF98DF8070051469DF80730D8
:1042C000404632881B0203F470631343A9F80030A0
:1042D000338000F08BF98DF8070021469DF80730F8
:1042E0004046338000F082F98DF807009DF80730D2
:1042F00032881B0203F47063134333803B80AB7836
:104300000133AB7003B0BDE8F08FA246A34621464F
:10431000C2E700BFE419022043AA02084DAA02081E
:1043200057AA020861AA0208E21902200122A42168
:10433000C0B200F04BB90022A421C0B200F046B9CF
:10434000FFF7F9BF7047000010B5054CC82000F01A
:1043500061F923781BB900F033F90123237010BDF4
:10436000E4190220002313B50C46C0B201218DF8D8
:10437000073000F03BF98DF807009DF80730236007
:1043800002B010BD2DE9F3411F461C4B002490469E
:104390005B788DF807408B422DD90929C5B296BFAD
:1043A000174A2346174B284697BF565C26465B5C48
:1043B000154A98BF545C194600F018F98DF80700AB
:1043C0009DF807102846089B89091960314600F0BE
:1043D0000DF98DF807009DF8073021462846C8F8EA
:1043E000003000F003F98DF807009DF8072012094E
:1043F00002F004023A6002B0BDE8F081E419022044
:1044000075AA02086BAA02087FAA020870B58AB0D2
:10441000054602F07BFA002854D14A4B00264A4C4C
:104420009D42AE602E610CBF484A494A9D426E6172
:104430002A60484AEE616A604FF001022E62EA602B
:10444000236B41D143F0800305A943482363236BC9
:10445000079603F080030193019B802305931223A9
:104460000693022308930423099300F0CBFF4FF433
:10447000807305A93848059300F0C4FF236C3246C9
:104480000F21482043F400032364236C03F400034A
:104490000293029B236A43F400032362236A23F4FA
:1044A0000003236200F03EFC482000F083FC49201A
:1044B00032460F2100F036FC492000F07BFC2846F4
:1044C00001F0BCFF0AB070BD43F0020305A9234808
:1044D0002363236B079603F002030393039B4FF4BC
:1044E00080730593122306930223089304230993F0
:1044F00000F088FF4FF4007305A91848059300F0F9
:1045000081FF236C32460F211F2043F400132364E4
:10451000236C03F400130493049B236A43F40013F5
:104520002362236A23F40013236200F0FBFB1F20A5
:1045300000F040FC202032460F2100F0F3FB202049
:10454000BBE700BFE819022000380240005C0040D1
:104550000054004032279140001C024000040240F9
:1045600030B54FF47A7485B005460294BDF8244006
:104570000194089C009402F001F9044628B12846F1
:1045800002F006F82846FFF741FF204605B030BD8F
:1045900030B54FF47A7485B005460294BDF82440D6
:1045A0000194089C009402F027F8044628B128469C
:1045B00001F0EEFF2846FFF729FF204605B030BD89
:1045C0000148FFF723BF00BFE81902201FB504AC64
:1045D000012304F8012D0A46014601930094024884
:1045E000FFF7D6FF04B010BDE81902201FB5002365
:1045F00004AA02F8013D01238DE80C000A46014699
:104600000348FFF7ADFF9DF80F0005B05DF804FB10
:10461000E819022000F05EB90D4B10B5188070202B
:104620000C4B0D4C1980236898476368702098479D
:1046300051280BD1094B702008221C60084B1870C0
:10464000084B1A70E3689847002010BD032010BD86
:10465000661A0220681A022090000020601A0220C8
:10466000341A0220641A022037B5164B02A900241E
:104670000546187841F8044DFFF774FE0198182894
:1046800017D009D810280FD0142810D0B8B9044674
:10469000A862204603B030BD40280CD049280CD079
:1046A0001C280CD1042300E00123AB62F1E70223B4
:1046B000FBE70323F9E70523F7E70623F5E70124E2
:1046C000E7E700BF341A02202DE9F04F534D95B0B3
:1046D0000024534E2B6881460594AA4606940794FD
:1046E0001B6930789847039689F8000078B109F182
:1046F000160509F102060DF1380811AFDFF830B1E7
:1047000099F800309C4205D34846FFF7ADFF15B03D
:10471000BDE8F08FDAF800303A46039841465B690D
:10472000007898473F4B0BA9DFF808C11A7808AB0F
:10473000012A01BFB8F8000023F81400388821F8D6
:104740001400900742BFB8F80000C0F5805023F86D
:104750001400500742BF3888C0F5805021F814007B
:10476000120742BFB8F8002021F814203A8831F827
:10477000141048BF23F81420A20033F814E05BF8AB
:10478000243052F80C009E458CBFAEEB0303A3EB24
:104790000E0381429BB28CBF081A401A80B21844A3
:1047A000039B05281878C4BF4BF802E04CF80210B0
:1047B000702815D1A6F800E0718107AB05AA214643
:1047C000009306ABFFF7DEFD059B05F8013B069B5A
:1047D0006B72079B032B14D8DFE803F011191B1D24
:1047E000114B19885BF802304B431B0B33800F4B86
:1047F00019885CF802304B431B0B7381DDE7012302
:104800002B710134023608F10208023778E70223DF
:10481000F6E70323F4E70023F2E700BF601A022063
:10482000341A0220641A0220661A0220681A022032
:10483000381A02204C1A02200F490020D1F8883083
:1048400043F47003C1F888300C4B1A6842F001023F
:104850001A6098601A6822F0847222F480321A601A
:10486000074A5A601A6822F480221A60D8604FF012
:1048700000638B60704700BF00ED00E0003802402D
:104880001030002408B5094B03201A6842F4007266
:104890001A601A6842F480721A6000F025FA00204B
:1048A000FDF720FCFDF7FEFB002008BD003C0240A8
:1048B000034A044B11681B780B441360704700BF18
:1048C000BCAE0220BC000020014B1868704700BF3E
:1048D000BCAE022038B50446FFF7F6FF0546631C60
:1048E0001EBF044B1B78E418FFF7EEFF401B844209
:1048F000FAD838BDBC00002038B50446002800F0C6
:104900002B810368954A93420CD002F58072934242
:1049100008D002F58072934204D04FF4A6719048FB
:10492000FDF707F9636833F4403304D040F24D11CA
:104930008B48FDF7FEF8A36833F0407304D04FF4C2
:10494000A7718748FDF7F5F82369012B04D940F2D8
:104950004F118348FDF7EDF8A369012B04D94FF4FB
:10496000A8717F48FDF7E5F8A36A33F0407223F0A1
:10497000807111D0B2F1806F0ED0B2F1006F0BD008
:10498000B1F1406F08D003F17143012B04D940F21B
:1049900051117348FDF7CDF8E36833F4006304D098
:1049A0004FF4A9716E48FDF7C4F8E369013B0F2B82
:1049B00004D940F253116A48FDF7BBF894F830303F
:1049C000012B04D94FF4AA716548FDF7B2F8636969
:1049D000022B04D940F255116148FDF7AAF894F86A
:1049E0002030012B04D94FF4AB715D48FDF7A1F8DD
:1049F000A26A5C4B9A4208D0E36A33F0405304D079
:104A00004FF4AD715648FDF794F8256C2DB920464A
:104A1000FCF756FB656484F83C50236CDB0600F120
:104A20009980236C23F4885323F0020343F002039C
:104A300023644D4B5A6822F440325A605A686168C8
:104A40000A435A60236821695A6822F480725A60C6
:104A50005A6842EA0122A1685A605A6822F04072FC
:104A60005A605A680A43E1685A609A6822F4006200
:104A70009A609A680A433B499A60A26A8A425DD06A
:104A8000996821F07061996099680A43E16A9A60B7
:104A90009A6822F040529A609A680A439A609A682B
:104AA000A16922F002029A609A6842EA41029A6081
:104AB00094F82020002A49D0636A013B072B04D9CF
:104AC0004FF4EE612648FDF734F82368616A5A68AE
:104AD000013942F400625A605A6822F460425A6016
:104AE0005A6842EA41325A6000202368E169DA6A72
:104AF000013922F47002DA62DA6A42EA015294F869
:104B00003010DA629A6822F400729A609A6842EA77
:104B1000412261699A609A6822F480629A609A6878
:104B200042EA81229A606064236C23F0030343F01D
:104B300001032364002384F83C3038BD9A6822F0D6
:104B400070629A609A6822F04052A7E75A6822F48D
:104B50000062C8E70120EDE7012038BD00200140D8
:104B6000A1AA02080100000F002301400023F7B5AD
:104B7000019304460B680F46122B07D9544A9342FF
:104B800004D040F25C615348FCF7D3FF7B68013BE3
:104B90000F2B04D940F25D614E48FCF7CAFFBB6899
:104BA000072B04D940F25E614A48FCF7C2FF94F833
:104BB0003C30012B70D03D680123BA68092D84F880
:104BC0003C302068AEB230D906EB46034FF0070EFA
:104BD000C1681E3B0EFA03FE21EA0E01C1603C498A
:104BE0008D421DD1C36843EA0263C3607A68062A16
:104BF0004FEA820329D81344476B591F1F238B4068
:104C000006FA01F127EA03034363426B1143416350
:104C1000314B984238D0002084F83C0003B0F0BDFE
:104C2000C16802FA03F30B43DFE705EB45034FF0DE
:104C3000070E01690EFA03FE02FA03F321EA0E01E0
:104C4000016101690B430361D0E70C2A0ED81344BC
:104C5000016BA3F123021F23934006FA02F221EA1B
:104C600003030363036B1A430263D1E713441F2258
:104C7000C16A413B9A4021EA020206FA03F1C2628C
:104C8000C26A1143C162C3E7122D07D1134A5368A8
:104C900043F480035360BEE70220BFE70C4B9D4204
:104CA00001D0112DB7D10D499D424A6842F400024E
:104CB0004A60B0D10A4B0B4A1B68B3FBF2F20A23DD
:104CC00053430193019B002BA5D0019B013BF8E7C7
:104CD00012000010A1AA0208002001400023014098
:104CE000B800002040420F00C31E042B10B504463C
:104CF00003D992210948FCF71CFF094A2402D36812
:104D000004F4E06423F4E0631B041B0C43F0BF6372
:104D100043F400331C43D46010BD00BFDFAA020877
:104D200000ED00E00F2A70B504460E46154603D983
:104D3000AA211D48FCF7FDFE0F2E03D9AB211A480E
:104D4000FCF7F7FE194B0120D968C1F30221C1F12C
:104D500007030A1D042B28BF0423062A00FA03F2C6
:104D60008CBF03390021002C02F1FF3200FA01F060
:104D700002EA060200F1FF3002FA01F205EA00053C
:104D800042EA05024FEA021207DB04F16044D2B2A4
:104D900004F5614484F8002370BD04F00F04D2B21E
:104DA000034B1A5570BD00BFDFAA020800ED00E0FA
:104DB00014ED00E0002803DABE210648FCF7B9BE76
:104DC0004209012300F01F0003FA00F0024B43F8F0
:104DD00022007047DFAA020800E100E0002803DAA1
:104DE000CE210948FCF7A5BE4309012200F01F00AF
:104DF000203302FA00F0054A42F82300BFF34F8F38
:104E0000BFF36F8F704700BFDFAA020800E100E028
:104E100010B5044608B9012010BD0268314B9A4212
:104E200003D070213048FCF784FE637F03F0FF025B
:104E30001BB922772046FCF79FF902236377237979
:104E4000012B03D97E212848FCF773FE2379002B20
:104E50003ED12368254A5A619A6822F018029A6066
:104E60006379012B03D990211F48FCF762FE627918
:104E70002368002A34D14FF0FF321A61636933F09E
:104E8000600303D09C211848FCF753FE2268616937
:104E9000936823F060030B439360A36933F08003AE
:104EA00003D0A0211048FCF744FE2268A169936852
:104EB00023F080030B439360236A013B022B03D949
:104EC000A5210948FCF735FE01230020637710BDBA
:104ED000E2682046A16800F00BF80028C0D09AE7ED
:104EE0002269CAE70030024020AB0208B71DC104A6
:104EF00032F0180370B506460D46144603D05F2104
:104F00001148FCF716FE1F2313F1FF3306D325FAD1
:104F100003F2D207F8D5082C14D009D874B9336835
:104F200000205D619A6822F0180214439C6070BDF5
:104F3000102C05D0182C01D1062BF0D9012070BD02
:104F4000072BFAE70F2BF8E75EAB020838B50446EB
:104F5000002800F0A2800268514B9A4203D0BA2187
:104F60005048FCF7E6FDA36833F0200303D0BB21D3
:104F70004C48FCF7DEFDE36833F0800303D0BC212E
:104F80004848FCF7D6FD236933F0400303D0BD2128
:104F90004448FCF7CEFD636833F0100303D0BE2114
:104FA0004048FCF7C6FD636933F4807206D0B3F560
:104FB000007F03D0BF213B48FCF7BBFDA36933F45E
:104FC000406303D0C0213748FCF7B3FD236A33F0B8
:104FD000080303D0C1213348FCF7ABFD636A33F407
:104FE000403303D0C3212F48FCF7A3FDA36A33F459
:104FF000802303D0C4212B48FCF79BFDE36A33F4E4
:10500000002303D0C5212748FCF793FD236B33F41D
:10501000801303D0C6212348FCF78BFD94F835306C
:1050200013B92046FCF7DAF822680223E56884F811
:1050300035301D4B11680B4061681360102963699E
:10504000106843EA010343EA0503256943EA0503BF
:10505000A56843EA0503A56943EA0503256A43EA0F
:105060000503656A43EA0503A56A43EA0503E56AA1
:1050700043EA0503256B43EA050343EA0003136093
:1050800001D1E3699361D368002043F01E03D3602C
:105090000123E06484F8353038BD012038BD00BFFD
:1050A000000005509FAB020807F0E0FF2DE9F0413A
:1050B000174698465A1E4FF6FE7304460D469A420E
:1050C000866D04D940F2CD112048FCF732FD94F8EA
:1050D0003430012B37D001230220002184F83430F2
:1050E00094F83530012B2AD184F8350061652168A8
:1050F000A3680868402B20F480200860C1F8048071
:105100001AD18F60CD60E26D3F239340B3600B688E
:1051100043F016030B604B6943F080034B61236C33
:105120001BB10B6843F008030B600B68002043F0D1
:1051300001030B60BDE8F0818D60CF60E3E784F888
:105140003410BDE8F0810220BDE8F081DEAB02083A
:10515000406D704710B50446002846D00268244BC5
:105160009A4203D0F6212348FCF7E3FC636833F44A
:10517000403303D0F7211F48FCF7DBFCA368042B66
:1051800003D9F8211B48FCF7D4FCE368B3F5804F42
:1051900003D3F9211748FCF7CCFC94F8393003F01D
:1051A000FF0223B984F838202046FEF715F922685B
:1051B00002236168002084F83930136823F44033F7
:1051C0000B43A1681360536B23F007030B43E168A3
:1051D0005363136C23F47F5323F03F030B43136497
:1051E0000123E06384F8393010BD012010BD00BFF9
:1051F00000B002401CAC020870477047036870B5ED
:105200005E6804461D68F20714D5E90512D51A68D0
:1052100022F480721A60C26B42F00102C263012262
:105220009A60042380F83930002380F838304369CD
:1052300003B19847B20616D5AB0414D523681A6893
:1052400022F400521A6020229A60E36B43F00203BA
:10525000E363042384F83930002384F83830636929
:105260000BB120469847300716D5290514D5236879
:105270001A6822F400621A6008229A60E36B43F015
:105280000403E363042384F83930002384F83830BE
:1052900063690BB12046984772070BD56B0509D59A
:1052A000236820461A6822F480621A6004229A60F9
:1052B000FFF7A2FFB00714D5A90512D523681A6815
:1052C00022F400721A6002229A60E36BE363012306
:1052D00084F83930002384F8383023690BB1204634
:1052E0009847F20613D5EB0411D5236820461A68B7
:1052F00022F480521A6010229A60E36BE363012368
:1053000084F83930002384F83830FFF776FF70BD19
:105310000129F8B504460E4604D940F24A613748DF
:10532000FCF707FC350163199B69B3F5804F04D383
:1053300040F24B613148FCF7FCFB6368B3F5403F3A
:1053400014D06319DB690A2B04D940F24E612B4853
:10535000FCF7EFFB63684BB104EB06131B6A022BEF
:1053600004D940F251612548FCF7E3FB94F838304A
:105370000220012B40D0012384F83900DFF880E0BF
:1053800084F838306319DF691A6A586A47EA0242BA
:10539000093F2368012F0FD800F07F410A4376B9F7
:1053A000596A01EA0E010A435A62A2699A61626A65
:1053B00022F07F429A6210E042EA0062A6B1D96907
:1053C0002544012F01EA0E0142EA0102DA61AA69CD
:1053D0001A6102D820F07F4018620123002084F86F
:1053E000393084F83800F8BD596A01EA0E010A43E1
:1053F0005A62A2699A61F0E7F8BD00BF1CAC0208CE
:10540000F0FFFC00A34B98422DE9F74F04460D46F0
:105410002BD003F58063984227D003F58063984230
:1054200023D003F5806398421FD003F58063984230
:105430001BD003F58063984217D003F58063984230
:1054400013D003F5806398420FD003F58063984230
:105450000BD003F58063984207D003F58063984230
:1054600003D0B1218C48FCF764FB2B881BB9B22117
:105470008948FCF75EFB6B68032B17D9A3F1110277
:10548000012A13D923F4001284498A420ED001F56F
:1054900080118B420AD0A1F570218A4206D0804A41
:1054A000934203D0B3217C48FCF743FBAB68022B4B
:1054B00003D9B4217848FCF73CFB0026DFF8E881EB
:1054C00001232A6803FA06F707EA02094F4540F06C
:1054D000C7806A6822F01002022A16D12A690F2AB0
:1054E00003D9C5216C48FCF724FB06F00702F1083C
:1054F00090000F2204EB810182400B6A23EA020E26
:105500002A69824042EA0E020A624FEA460B4FF0D5
:10551000030A6A680AFA0BFA206802F0030122F013
:1055200010026FEA0A0A01FA0BF1013A00EA0A00D6
:10553000012A41EA0001216017D8EA68032A03D949
:10554000D9215548FCF7F5FAA168EA680AEA010191
:105550006B6802FA0BF2C3F300130A43B340A26074
:10556000626822EA070213436360E36868680AEA34
:10557000030AAB6803FA0BF343EA0A03E360C300D0
:105580006ED5484B26F003014FF00F0C5A6C01F119
:10559000804142F4804201F59C315A645B6C03F413
:1055A00080430193019B06F003038A684FEA830E50
:1055B0000CFA0EF322EA030C364B9C4257D003F54B
:1055C00080639C4255D003F580639C4253D003F521
:1055D00080639C4251D003F580639C424FD003F519
:1055E00080639C424DD003F580639C424BD003F511
:1055F00080639C4249D003F580639C4247D003F509
:1056000080639C4214BF0A23092303FA0EF3C703E5
:1056100043EA0C038B606FEA0901D8F8002054BFFD
:105620000A4049EA02028303C8F80020D8F804209F
:1056300054BF0A4049EA0202C702C8F80420D8F859
:10564000082054BF0A4049EA0202C8F80820820232
:10565000D8F80C3054BF0B4049EA0303C8F80C30AB
:105660000136102E7FF42CAF03B0BDE8F08F00237D
:10567000CBE70123C9E70223C7E70323C5E70423D8
:10568000C3E70523C1E70623BFE70723BDE70823D8
:10569000BBE700BF000002405CAC02080000111034
:1056A0000000221000380240003C01402DE9F84F74
:1056B0005D4B0446884698422CD003F5806398429F
:1056C00028D003F58063984224D003F58063984284
:1056D00020D003F5806398421CD003F58063984284
:1056E00018D003F58063984214D003F58063984284
:1056F00010D003F5806398420CD003F58063984284
:1057000008D003F58063984204D04FF4977147485E
:10571000FCF70FFA00224648DFF81891DFF818A1CD
:10572000DFF818B1012303FA02FE0EEA08018E45E4
:1057300063D122F0030502F003070F263A4B05F16F
:105740008045BF009C4205F59C3506FA07F6D5F862
:1057500008C00CEA060C55D003F580639C4253D078
:1057600003F580639C4251D003F580639C424FD087
:1057700003F580639C424DD04C454DD054454DD0EF
:105780005C454DD003F580539C424BD003F58063BC
:105790009C420CBF09230A23BB409C4510D1AB6837
:1057A000C94323EA0606AE6003680B400360436802
:1057B0000B40436083680B408360C3681940C1603D
:1057C00055000323216802F00707AB400F26BF00F6
:1057D000DB43BE4019402160D10804EB81010D6A12
:1057E00025EA06060E62A1681940A160616821EAF7
:1057F0000E016160E1680B40E3600132102A91D133
:10580000BDE8F88F0023C7E70123C5E70223C3E7FC
:105810000323C1E70423BFE70523BDE70623BBE756
:105820000723B9E70823B7E7000002405CAC020891
:10583000003C01400014024000180240001C0240DD
:1058400038B505460C4621B94FF4BD710448FCF744
:1058500070F92B691C4214BF0120002038BD00BF25
:105860005CAC020870B5054616460C4621B94FF4EB
:10587000CD710848FCF75DF9012E06D940F29B1165
:105880000448FCF756F9AC6170BD002EFBD124042E
:10589000F9E700BF5CAC02082DE9FF47044690F829
:1058A000B8029DF8307001289DF834E0BDF838C08A
:1058B00029D00125002612F0800F4FF0280084F82F
:1058C000B85202F07F0900FB014008BF354680F85E
:1058D0003D6080F83830A0F840C080F8391080F87A
:1058E0003FE080F83A9080F83B5080F83C70CDF86B
:1058F00008C020688DE8804007F026F884F8B86278
:1059000004B0BDE8F0870220FAE790F8B832012B26
:1059100010B5044609D0012380F8B832006807F0BA
:10592000A1F8002084F8B80210BD022010BD0000CC
:105930002DE9F04107468AB0002847D00368B3F14B
:10594000A04F06D0224A934203D07C212148FCF785
:10595000F0F897F8B93203F0FF0223B987F8B822BC
:105960003846FEF70FFB3C4603236D4607F104085B
:1059700054F8100B3E4687F8B93206F0A8FE0FCC5B
:105980000FC50FCC0FC594E8030085E8030098E825
:105990000E0038686D4606F059FE56F8100B0121CE
:1059A00006F09BFE0FCE0FC50FCE0FC594E8030087
:1059B00085E8030098E80E00386806F04DFF0123E3
:1059C000002087F8B9320AB0BDE8F0810120FAE77B
:1059D000000004409BAC0208F0B528249DF8147028
:1059E000069E04FB0104BDF81C5084F83B2084F89B
:1059F0003F306FB90327022B84F842702BD0BB4293
:105A000029D0012B31D12823002203FB01032AE0F6
:105A10004FF0020E84F842E0032B26D801A454F87C
:105A200023F000BF355A0008075A0008575A0008EB
:105A3000575A0008012F18D1BAB925B9282303FBFA
:105A4000010383F85170282303FB010393F85120CD
:105A50004AB1022207E0282303FB0103D2B993F8DD
:105A60005140002CF5D183F842202824002204FB69
:105A7000010383F8391019465E649D64383183F858
:105A80005C20DA6483F85D20027C0068BDE8F040A9
:105A900007F04CB893F85020DAE700BF2DE9F04F3B
:105AA000066887B00446304606F076FE012840F0CE
:105AB000B080206806F06CFE002800F0AA80206804
:105AC00006F066FE870203D523684FF400125A6180
:105AD000206806F05DFEC50203D523684FF48012EE
