:020000040800F2
:1000000000000520910F0008D5210008D721000825
:10001000D9210008DB210008DD21000800000000D4
:1000200000000000000000000000000081DD00086A
:10003000DF2100080000000021DE000885DE000846
:10004000E10F0008E10F0008E10F0008E10F0008D0
:10005000E10F0008E10F0008E10F0008E10F0008C0
:10006000E10F0008E10F0008E10F0008E10F0008B0
:10007000E10F0008E10F0008E10F0008E10F0008A0
:10008000E10F0008E10F0008E10F0008E10F000890
:10009000E10F0008E10F0008E10F0008E10F000880
:1000A000E10F0008E10F0008E10F0008E10F000870
:1000B000E10F0008E1210008E10F0008E10F00084E
:1000C000E10F0008E10F0008E10F0008E10F000850
:1000D000E10F0008E10F0008E10F0008E10F000840
:1000E000E10F0008E10F0008E10F0008E10F000830
:1000F000E10F0008E10F0008E10F0008E10F000820
:10010000E10F0008E10F0008E10F0008E10F00080F
:10011000E10F0008E10F0008ED210008E10F0008E1
:10012000E10F0008E10F0008E10F0008E10F0008EF
:10013000E10F0008E10F0008E10F0008E10F0008DF
:10014000E10F0008E10F0008E10F0008F9210008A5
:10015000E10F0008E10F0008E10F0008E10F0008BF
:10016000E10F0008E10F0008E10F0008E10F0008AF
:10017000E10F0008E10F0008E10F00080000000097
:10018000E10F0008E10F0008E10F0008E10F00088F
:10019000E10F0008E10F0008E10F0008E10F00087F
:1001A00005220008E10F000811220008E10F0008F5
:1001B000E10F0008E10F0008E10F0008E10F00085F
:0801C000E10F0008E10F000847
:1001D00010B5054C237833B9044B13B10448AFF381
:1001E00000800123237010BD60010020000000008A
:1001F0008070020808B5034B1BB103490348AFF3F5
:10020000008008BD0000000064010020807002082A
:10021000034613F8012B002AFBD1181A0138704746
:1002200081F0004102E000BF83F0004330B54FEAA7
:1002300041044FEA430594EA050F08BF90EA020F14
:100240001FBF54EA000C55EA020C7FEA645C7FEAA7
:10025000655C00F0E2804FEA5454D4EB5555B8BFCA
:100260006D420CDD2C4480EA020281EA030382EA3B
:10027000000083EA010180EA020281EA0303362DCD
:1002800088BF30BD11F0004F4FEA01314FF4801CA0
:100290004CEA113102D0404261EB410113F0004FB2
:1002A0004FEA03334CEA133302D0524263EB430369
:1002B00094EA050F00F0A780A4F10104D5F1200E07
:1002C0000DDB02FA0EFC22FA05F2801841F1000162
:1002D00003FA0EF2801843FA05F359410EE0A5F136
:1002E00020050EF1200E012A03FA0EFC28BF4CF067
:1002F000020C43FA05F3C01851EBE37101F000451D
:1003000007D54FF0000EDCF1000C7EEB00006EEB29
:100310000101B1F5801F1BD3B1F5001F0CD34908B3
:100320005FEA30004FEA3C0C04F101044FEA44520A
:1003300012F5800F80F09A80BCF1004F08BF5FEA91
:10034000500C50F1000041EB045141EA050130BD71
:100350005FEA4C0C404141EB010111F4801FA4F114
:100360000104E9D191F0000F04BF01460020B1FA69
:1003700081F308BF2033A3F10B03B3F120020CDAA1
:100380000C3208DD02F1140CC2F10C0201FA0CF07F
:1003900021FA02F10CE002F11402D8BFC2F1200CE4
:1003A00001FA02F120FA0CFCDCBF41EA0C0190409A
:1003B000E41AA2BF01EB0451294330BD6FEA0404E3
:1003C0001F3C1CDA0C340EDC04F11404C4F12002CE
:1003D00020FA04F001FA02F340EA030021FA04F3E0
:1003E00045EA030130BDC4F10C04C4F1200220FA37
:1003F00002F001FA04F340EA0300294630BD21FA75
:1004000004F0294630BD94F0000F83F4801306BF3A
:1004100081F480110134013D4EE77FEA645C18BF2E
:100420007FEA655C29D094EA050F08BF90EA020FC5
:1004300005D054EA000C04BF1946104630BD91EABD
:10044000030F1EBF0021002030BD5FEA545C05D1C0
:100450004000494128BF41F0004130BD14F58004FF
:100460003CBF01F5801130BD01F0004545F0FE4173
:1004700041F470014FF0000030BD7FEA645C1ABFA8
:10048000194610467FEA655C1CBF0B46024650EADF
:10049000013406BF52EA033591EA030F41F400210B
:1004A00030BD00BF90F0000F04BF0021704730B591
:1004B0004FF4806404F132044FF000054FF0000166
:1004C00050E700BF90F0000F04BF0021704730B527
:1004D0004FF4806404F1320410F0004548BF4042FC
:1004E0004FF000013EE700BF42004FEAE2014FEA51
:1004F00031014FEA02701FBF12F07F4393F07F4F2C
:1005000081F06051704792F0000F14BF93F07F4F5D
:10051000704730B54FF4607401F0004521F00041A0
:1005200020E700BF50EA010208BF704730B54FF026
:1005300000050AE050EA010208BF704730B511F02B
:10054000004502D5404261EB41014FF4806404F163
:1005500032045FEA915C3FF4DCAE4FF003025FEAE5
:10056000DC0C18BF03325FEADC0C18BF033202EB6D
:10057000DC02C2F1200300FA03FC20FA02F001FAC7
:1005800003FE40EA0E0021FA02F11444C1E600BF66
:1005900070B54FF0FF0C4CF4E06C1CEA11541DBF19
:1005A0001CEA135594EA0C0F95EA0C0F00F0DEF8E4
:1005B0002C4481EA030621EA4C5123EA4C5350EAC9
:1005C000013518BF52EA033541F4801143F480131A
:1005D00038D0A0FB02CE4FF00005E1FB02E506F0AB
:1005E0000042E0FB03E54FF00006E1FB03569CF000
:1005F000000F18BF4EF0010EA4F1FF04B6F5007F06
:1006000064F5407404D25FEA4E0E6D4146EB060677
:1006100042EAC62141EA55514FEAC52040EA5E5000
:100620004FEACE2EB4F1FD0C88BFBCF5E06F1ED8AA
:10063000BEF1004F08BF5FEA500E50F1000041EBE1
:10064000045170BD06F0004646EA010140EA02008E
:1006500081EA0301B4EB5C04C2BFD4EB0C0541EAB0
:10066000045170BD41F480114FF0000E013C00F3C5
:10067000AB8014F1360FDEBF002001F0004170BDE9
:10068000C4F10004203C35DA0C341BDC04F1140402
:10069000C4F1200500FA05F320FA04F001FA05F28E
:1006A00040EA020001F0004221F0004110EBD3705B
:1006B00021FA04F642EB06015EEA430E08BF20EA87
:1006C000D37070BDC4F10C04C4F1200500FA04F32A
:1006D00020FA05F001FA04F240EA020001F00041BC
:1006E00010EBD37041F100015EEA430E08BF20EA2F
:1006F000D37070BDC4F1200500FA05F24EEA020E77
:1007000020FA04F301FA05F243EA020321FA04F0A5
:1007100001F0004121FA04F220EA020000EBD3705C
:100720005EEA430E08BF20EAD37070BD94F0000F5C
:100730000FD101F00046400041EB010111F4801F90
:1007400008BF013CF7D041EA060195F0000F18BF41
:10075000704703F00046520043EB030313F4801F7D
:1007600008BF013DF7D043EA0603704794EA0C0F37
:100770000CEA135518BF95EA0C0F0CD050EA41064D
:1007800018BF52EA4306D1D181EA030101F00041CA
:100790004FF0000070BD50EA410606BF10461946F2
:1007A00052EA430619D094EA0C0F02D150EA0136FE
:1007B00013D195EA0C0F05D152EA03361CBF10463F
:1007C00019460AD181EA030101F0004141F0FE41DE
:1007D00041F470014FF0000070BD41F0FE4141F462
:1007E000780170BD70B54FF0FF0C4CF4E06C1CEA62
:1007F00011541DBF1CEA135594EA0C0F95EA0C0F17
:1008000000F0A7F8A4EB050481EA030E52EA0335D1
:100810004FEA013100F088804FEA03334FF08055F2
:1008200045EA131343EA12634FEA022245EA11151F
:1008300045EA10654FEA00260EF000419D4208BFD0
:10084000964244F1FD0404F5407402D25B084FEA7D
:100850003202B61A65EB03055B084FEA32024FF429
:1008600080104FF4002CB6EB020E75EB030E22BF86
:10087000B61A754640EA0C005B084FEA3202B6EB46
:10088000020E75EB030E22BFB61A754640EA5C00F5
:100890005B084FEA3202B6EB020E75EB030E22BF85
:1008A000B61A754640EA9C005B084FEA3202B6EB86
:1008B000020E75EB030E22BFB61A754640EADC0045
:1008C00055EA060E18D04FEA051545EA16754FEAA7
:1008D00006164FEAC30343EA52734FEAC2025FEAC5
:1008E0001C1CC0D111F4801F0BD141EA00014FF054
:1008F00000004FF0004CB6E711F4801F04BF014325
:100900000020B4F1FD0C88BFBCF5E06F3FF6AFAE40
:10091000B5EB030C04BFB6EB020C5FEA500C50F1D0
:10092000000041EB045170BD0EF0004E4EEA113153
:1009300014EB5C04C2BFD4EB0C0541EA045170BD5A
:1009400041F480114FF0000E013C90E645EA060E9E
:100950008DE60CEA135594EA0C0F08BF95EA0C0FCC
:100960003FF43BAF94EA0C0F0AD150EA01347FF414
:1009700034AF95EA0C0F7FF425AF104619462CE7EB
:1009800095EA0C0F06D152EA03353FF4FDAE10464E
:10099000194622E750EA410618BF52EA43067FF49F
:1009A000C5AE50EA41047FF40DAF52EA43057FF42F
:1009B000EBAE12E74FF0FF3C06E000BF4FF0010C3A
:1009C00002E000BF4FF0010C4DF804CD4FEA410C9E
:1009D0007FEA6C5C4FEA430C18BF7FEA6C5C1BD06B
:1009E00001B050EA410C0CBF52EA430C91EA030FEC
:1009F00002BF90EA020F0020704710F1000F91EA49
:100A0000030F58BF994208BF90422CBFD8176FEA16
:100A1000E37040F0010070474FEA410C7FEA6C5CE4
:100A200002D150EA013C07D14FEA430C7FEA6C5CEB
:100A3000D6D152EA033CD3D05DF8040B704700BF17
:100A40008446104662468C461946634600E000BF65
:100A500001B5FFF7B7FF002848BF10F1000F01BD37
:100A60004DF808EDFFF7F4FF0CBF012000205DF802
:100A700008FB00BF4DF808EDFFF7EAFF34BF012087
:100A800000205DF808FB00BF4DF808EDFFF7E0FF20
:100A900094BF012000205DF808FB00BF4DF808ED71
:100AA000FFF7CEFF94BF012000205DF808FB00BFD8
:100AB0004DF808EDFFF7C4FF34BF012000205DF8BA
:100AC00008FB00BF4FEA410C7FEA6C5C02D150EAA0
:100AD000013C0AD14FEA430C7FEA6C5C02D152EA36
:100AE000033C02D14FF0000070474FF00100704707
:100AF0004FEA410212F5001215D211D56FF4787346
:100B0000B3EB625212D94FEAC12343F0004343EAE8
:100B1000505311F0004F23FA02F018BF40427047C3
:100B20004FF00000704750EA013005D111F000404D
:100B300008BF6FF0004070474FF00000704700BFE3
:100B40004FEA4102B2F1E04324BFB3F5001CDCF1EF
:100B5000FE5C0DD901F0004C4FEAC0024CEA507027
:100B6000B2F1004F40EB830008BF20F00100704756
:100B700011F0804F21D113F13872BCBF01F0004059
:100B8000704741F480114FEA5252C2F11802C2F18B
:100B9000200C10FA0CF320FA02F018BF40F001000C
:100BA0004FEAC1234FEAD32303FA0CFC40EA0C00BE
:100BB00023FA02F34FEA4303CCE77FEA625307D1FB
:100BC00050EA01331EBF4FF0FE4040F44000704732
:100BD00001F0004040F0FE4040F40000704700BFCC
:100BE0007BB972B90029BEBF00204FF0004106E07A
:100BF00008BF00281CBF6FF000414FF0FF3000F02D
:100C0000C5B9ADF1080C6DE904CE002909DB002B54
:100C10001ADB00F04DF8DDF804E0DDE9022304B052
:100C20007047404261EB4101002B1BDB00F040F8B4
:100C3000DDF804E0DDE9022304B0404261EB41014C
:100C4000524263EB43037047524263EB430300F0AD
:100C50002FF8DDF804E0DDE9022304B0404261EB47
:100C600041017047524263EB430300F021F8DDF885
:100C700004E0DDE9022304B0524263EB4303704712
:100C800053B94AB9002908BF00281CBF4FF0FF31F3
:100C90004FF0FF3000F07AB9ADF1080C6DE904CEE9
:100CA00000F006F8DDF804E0DDE9022304B0704747
:100CB0002DE9F0478C460D460446089E002B51D185
:100CC0008A4217466DD9B2FA82FEBEF1000F0BD0F0
:100CD000CEF1200C01FA0EF520FA0CFC02FA0EF708
:100CE0004CEA050C00FA0EF44FEA174A250CBCFB3F
:100CF000FAF81FFA87F90AFB18CC45EA0C4508FBFD
:100D000009F3AB420AD9ED1908F1FF3280F02381D3
:100D1000AB4240F22081A8F102083D44ED1AA4B292
:100D2000B5FBFAF00AFB105544EA054400FB09F94B
:100D3000A14509D9E41900F1FF3380F00A81A145EA
:100D400040F2078102383C44A4EB090440EA084021
:100D50000021002E61D024FA0EF400233460736069
:100D6000BDE8F0878B4207D9002E54D0002186E8D9
:100D700021000846BDE8F087B3FA83F1002940F06E
:100D80008E80AB4202D3824200F2FA80841A65EB75
:100D900003050120AC46002E3FD086E81010BDE8C8
:100DA000F08712B90127B7FBF2F7B7FA87FEBEF159
:100DB000000F34D1EB1B3A0C1FFA87FC0121B3FB67
:100DC000F2F8250C02FB183345EA03450CFB08F347
:100DD000AB4207D9ED1908F1FF3002D2AB4200F265
:100DE000D1808046ED1AA3B2B5FBF2F002FB10559C
:100DF00043EA05440CFB00FCA44507D9E41900F1C3
:100E0000FF3302D2A44500F2B8801846A4EB0C04CC
:100E100040EA08409DE731463046BDE8F087CEF114
:100E2000200405FA0EF307FA0EF720FA04F83A0C3C
:100E300025FA04F448EA0308B4FBF2F14FEA184536
:100E400002FB11441FFA87FC45EA044501FB0CF341
:100E5000AB4200FA0EF409D9ED1901F1FF3080F030
:100E60008A80AB4240F2878002393D44EB1A1FFA78
:100E700088F5B3FBF2F002FB103345EA034500FBB3
:100E80000CF3AB4207D9ED1900F1FF386FD2AB423A
:100E90006DD902383D44EB1A40EA01418FE7C1F1B8
:100EA000200722FA07F88B4005FA01F448EA030309
:100EB00020FA07FE4FEA134CFD404EEA040EB5FB44
:100EC000FCF94FEA1E440CFB19551FFA83F844EA5B
:100ED000054509FB08F4AC4202FA01F200FA01FAF6
:100EE00008D9ED1809F1FF3043D2AC4241D9A9F13C
:100EF00002091D442D1B1FFA8EFEB5FBFCF00CFBF6
:100F000010554EEA054400FB08F8A04507D9E4183F
:100F100000F1FF3529D2A04527D902381C4440EA08
:100F20000940A4EB0804A0FB02894C45C6464D4687
:100F300015D312D056B1BAEB0E0364EB050404FAD4
:100F400007F7CB401F43CC40376074600021BDE8F9
:100F5000F0871846F8E69046E0E6C245EAD2B8EBDC
:100F6000020E69EB03050138E4E72846D7E740465F
:100F700091E78146BEE7014678E702383C4445E701
:100F8000084608E7A8F102083D442BE7704700BF78
:100F9000DFF834D0002103E00C4B5B5843500431A0
:100FA0000B480C4B42189A42F6D30B4A02E000233E
:100FB00042F8043B094B9A42F9D304F0CFF924F0EC
:100FC000ABF900F08FFD70470000052000540308C6
:100FD00000000020600100206001002084680420DF
:100FE000FEE770B50E4615460C46A31B9D4201DC7C
:100FF000284670BD00F0D0F904F8010BF5E770B594
:101000000E4615460C46A31B9D4201DC284670BDCA
:1010100014F8010B00F0B0F9F5E7000008B50A4B31
:101020000246196809B909491960186869460244F5
:101030008A4206D924F06AF90C2303604FF0FF308E
:1010400008BD1A6008BD00BF2C050020846804207C
:101050004FF0FF3070474FF4005300204B60704753
:1010600001207047002070471FB5102200216846FC
:101070004FF4803424F0B8F91248134B134A80E837
:10108000180000230124826283600361836180F879
:101090002030C362C360C46180F83030446104F022
:1010A000BDF908B100F080FD0423694605488DE8CC
:1010B00018000023029304F0EBFA08B100F074FD6D
:1010C00004B010BDD8530420002201400100000FDD
:1010D00010B588B004461422002103A824F084F936
:1010E00022681A4B9A422ED103F58B33032403A9AD
:1010F00017485A6C42F480625A645A6C02F4806257
:101100000092009A1A6B42F020021A631A6B02F0E6
:1011100020020192019A1A6B42F001021A631B6BC2
:10112000049403F001030293029B4FF4F8630393CA
:1011300004F0FAFE012303A9064803930023049454
:10114000059304F0F1FE08B010BD00BF002201407D
:10115000001402400000024008B50948094B036032
:10116000002303714371436183610123036204F02F
:10117000E1FB18B1BDE8084000F016BD08BD00BF96
:101180002054042000300240026882B0084B9A428A
:101190000BD1D3F8302803F5006342F480521A6370
:1011A0001B6B03F480530193019B02B0704700BF97
:1011B0000030024008B50B480B4B0360002343602E
:1011C0008360C3600361436183610362436283623E
:1011D000C362036304F04CFC18B1BDE8084000F0A2
:1011E000E3BC08BD445404200000055070B58CB029
:1011F00004461422002107A824F0F6F82268384B90
:101200009A426BD1374B02260D2507A95A6B002451
:10121000354842F001025A635A6B02F00102019212
:10122000019A1A6B42F010021A631A6B02F0100254
:101230000292029A1A6B42F008021A631A6B02F0C9
:1012400008020392039A1A6B42F040021A631A6B67
:1012500002F040020492049A1A6B42F080021A6370
:101260001A6B02F080020592059A1A6B42F0010295
:101270001A631B6B089603F001030693069B602319
:1012800007930B9504F050FE082307A9174807930E
:10129000089609940A940B9504F046FE4FF40073E7
:1012A00007A913480793089609940A940B9504F02C
:1012B0003BFE4FF4BC4307A90E48079308960994D8
:1012C0000A940B9504F030FE502307A90A480793AF
:1012D000089609940A940B9504F026FE0CB070BD94
:1012E000000005500038024000100240000C02408F
:1012F00000180240001C0240000002402DE9F047A7
:101300001E46023B1446222B04D9002313702046AC
:10131000BDE8F0871546B0464FEAE679DFF854A0FD
:10132000074642464B46FFF75BFCA6FB00230AEB51
:101330000703AE469A1A92F823300EF8013B50EAA2
:10134000010315D1002FBEBF2D238EF8003005F10B
:10135000020E00230EF1FF328EF8003023469A422F
:10136000D5D91178187802F8010903F8011BF6E7BE
:101370007546D5E7B048030813B502A904460A2309
:10138000012201F8040D03480AF0DBFF204602B0F9
:1013900010BD00BF9859042013B5074C0A23012241
:1013A0000DF1070120460BF023F80028F6D19DF837
:1013B000070002B010BD00BF98590420FFF7DCBF42
:1013C0000A20FFF7D9BF10B5441E14F8010F00B969
:1013D00010BDFFF7D1FFF8E700B589B00A23C117A8
:1013E0006A46FFF78BFF6846FFF7EDFF09B05DF82F
:1013F00004FB10B588B0102300216A46FFF77EFF7A
:101400006846FEF705FFC4B2072C04D96846FFF70B
:10141000DAFF08B010BD01343020FFF7ADFFE4B2B1
:10142000F2E708B5FFF7E5FF0A20BDE80840FFF73F
:10143000A3BF08B5FFF7C7FF0A20BDE80840FFF7C4
:101440009BBF00B589B00A23C1176A46FFF756FF54
:101450006846FFF7EEFF09B05DF804FB0A4A49F25F
:101460006901136898B21B0C01FB0030074910B5E5
:10147000106044F250640A6893B2120C04FB032318
:101480000B6003EB004010BD9C0000209800002082
:1014900008B501F0EDF903F0E7FA01F02CFC0120AA
:1014A0000CF011FAFBE770477047704730B5074DF5
:1014B00087B00FCD01AC0FC42B68002101A82360B9
:1014C0000CF0E7F9024B186007B030BD98700208C5
:1014D00094540420704700002DE9F04F93B014227B
:1014E0000021DFF8C0B20DA8A44F23F07DFFA44B6C
:1014F000584620211A6B0024DFF8ACA2032542F0E5
:1015000010024FF002094FF00A0801261A631A6B05
:1015100002F010020292029A1A6B42F040021A6321
:101520001A6B02F040020392039A1A6B42F0020215
:101530001A631A6B02F002020492049A1A6B42F0C8
:1015400008021A631A6B02F008020592059A1A6BD8
:1015500042F004021A631A6B02F004020692069A21
:101560001A6B42F001021A631A6B02F00102079231
:10157000079A1A6B42F400721A631A6B02F4007233
:101580000892089A1A6B42F480721A631A6B02F47A
:1015900080720992099A1A6B42F480621A631A6B7C
:1015A00002F480620A920A9A1A6B42F020021A63CD
:1015B0001A6B02F020020B920B9A1A6B42F0800217
:1015C0001A6301221B6B03F080030C930C9B04F045
:1015D000DBFE384600220C2104F0D6FE694B0122C6
:1015E00008211846009304F0CFFE384601224FF43C
:1015F000805104F0C9FE504600224FF4005104F01F
:10160000C3FE0022C821604804F0BEFE08230DA9D5
:101610005E480D930E940F9404F086FC43F623422B
:101620000DA95B480D92CDF838900F941095CDF828
:10163000448004F079FC4FF480520DA955480D9276
:101640000E940F9404F070FC534B40220DA95846A1
:101650000E930D920F9404F067FC20220DA95846BA
:101660000E960D920F94109404F05EFC41F20C0261
:101670000DA938460E960D920F94109404F054FC68
:10168000464A4FF400530DA90E94104601920D9353
:101690000F9404F049FC08230DA90E960D93009BAE
:1016A0000F941846109404F03FFC10230DA95846DF
:1016B0000D9300930E940F9404F036FC48F204014D
:1016C00050460E940D910DA90F9404F02DFC4FF48B
:1016D00000530DA950460E960D930F94109404F0EC
:1016E00023FC4FF4006138460E950D910DA90F941F
:1016F00004F01AFC4FF400530DA938460F940D93D3
:10170000254B0E9304F010FC009B0DA95046CDF81C
:1017100038900D930F941095CDF8448004F004FC9C
:10172000C8230DA918480D930E960F94109404F039
:10173000FBFB019A05230DA9CDF8389010460D93B7
:101740000F941095CDF8448004F0EEFB04230DA90E
:101750000D480D930E940F9404F0E6FB28230DA979
:101760000F480D93CDF838900F941095CDF8448024
:1017700004F0DAFB13B0BDE8F08F00BF0020024098
:1017800000380240002802400018024000100240C9
:101790000004024000240240000012100008024031
:1017A00000000240000C0240001C024008B5124834
:1017B0000122124B1249C26080E80A0000238360B4
:1017C000036143618361C361036205F0C9FB08B132
:1017D00000F0EAF90021084805F02EFE08B100F0FB
:1017E000E3F90021044805F06DFE18B1BDE808409A
:1017F00000F0DAB908BD00BFE4540420FFEAC000DD
:101800000054004008B512480122124B1249C26030
:1018100080E80A0000238360036143618361C36140
:10182000036205F09DFB08B100F0BEF900210848F5
:1018300005F002FE08B100F0B7F90021044805F0F8
:1018400041FE18B1BDE8084000F0AEB908BD00BFC8
:1018500098540420FFEAC000005C004010B5142238
:101860008AB0044600210DEB020023F0BDFD236881
:10187000254A934221D1254C05A92548236B43F0E5
:1018800002032363236B03F002030193019B4FF4D4
:1018900040730593122306930123079304230993AE
:1018A00004F042FB236C43F400132364236C03F421
:1018B00000130293029B0AB010BD164A9342FAD15C
:1018C000124C05A91448236B43F080032363236B58
:1018D00003F080030393039B4FF4C073059312231B
:1018E000069301230793032308930423099304F029
:1018F0001BFB236C43F400032364236C03F40003F9
:101900000493049BD7E700BF005400400038024016
:1019100000040240005C0040001C024003680E4AC4
:1019200093420AD102F5F2324FF440710B48136C26
:1019300023F40013136404F04BBC094A934209D109
:1019400002F5EE324FF4C0710648136C23F4000325
:101950001364F0E7704700BF0054004000040240E9
:10196000005C0040001C024070B5B4B03022002181
:10197000022507A8012623F037FD1422002102A822
:1019800023F032FD0021842213A823F02DFD002432
:1019900006F0BAF92E4B07A81A6C42F080521A646E
:1019A0001B6C03F080530093009B2A4B1A6842F48F
:1019B00040421A604FF480321B6808924FF4800254
:1019C00003F440430C960E9219220193019B0923C4
:1019D0000F924FF4C8720793109212930D951195C0
:1019E00006F0ACFA06F098F90F23062102A802933C
:1019F0004FF4A053039505934FF48053049406933A
:101A000006F0D8FC144B13A817951393642315956F
:101A100014934FF4C07316951893052319951A93D0
:101A200003231C961B934FF400331D961E934FF413
:101A3000007323941F934FF00063249429942C94F3
:101A40002E943293339406F0EBFD34B070BD00BF9A
:101A500000380240007000406848B10108B54FF4FA
:101A600088714FF4F07003F069FB054809F08EF9B6
:101A700000B1FEE7024809F017F800B1FEE708BD23
:101A80009858042000B58FB003A803F0AFFB144BA7
:101A90009DF80C2019788DF8082091421CD0BDF8D3
:101AA0000E1021B1BDF818200AB159809A81002288
:101AB00058889B898DF8092001930090FFF78CFCD2
:101AC0002020FFF77BFCBDF80400FFF785FCFFF743
:101AD00077FC684616F028FD0FB05DF804FB00BFE8
:101AE0003005002008B5BFF34F8FBFF36F8F274B32
:101AF0000022C3F85022BFF34F8FBFF36F8F5A6994
:101B000042F400325A61BFF34F8FBFF36F8F03F07F
:101B10004BFCFFF729FFFFF7DFFCFFF7A5FAFFF704
:101B20001BFBFFF747FBFFF7D5FCFFF73FFEFFF777
:101B300069FE00F03BF800F0C5F800F045F900F050
:101B4000DDF900F037FA00F07DFA00F0AFFC00F0AC
:101B50001DFD00F063FB00F067FD00F091FB00F05D
:101B6000B1FD00F0DBFD00F0F7FDFFF777FF08485F
:101B700023F04AFD02F056FF02F061FFFFF796FCEA
:101B80000BF073FEFFF77EFFFCE700BF00ED00E007
:101B9000044903080268034B9A4201D103F01ABCBE
:101BA000704700BF001000407047704708B50B48F1
:101BB000FF230B4A80E80C0000230122C3608260EF
:101BC000026143618361C361036206F003F918B1E6
:101BD000BDE80840FFF7E8BF08BD00BF305504204E
:101BE000001000A02DE9F04114228AB00446002123
:101BF0000DEB020023F0F8FB22682D4B9A4253D1E3
:101C00002C4B0225032409269A6B4FF0040805A9E2
:101C1000294842F0020200279A639A6B02F00202FE
:101C20000192019A1A6B42F010021A631A6B02F0C9
:101C300010020292029A1A6B42F002021A631A6BA5
:101C400002F002020392039A1A6B42F008021A632E
:101C50001B6BCDF8148003F00803069508940493D9
:101C6000049B099604F060F9402305A913480593E5
:101C70000A23069509930797089404F055F905A9D6
:101C80000E48CDF81480069507970894099604F03D
:101C90004BF94FF4605305A909480593069507973A
:101CA0000894099604F040F90AB0BDE8F08100BF3D
:101CB000001000A000380240001002400004024062
:101CC000000C024010B592B000241822002101A897
:101CD00023F08AFB2C22214607A8009423F084FBE2
:101CE0003048314B04614461846180E818007F23EF
:101CF0008360FF23C36007F059F908B1FFF754FF71
:101D0000012201A927488DF804408DF805408DF87F
:101D100006400594069407F0DFF908B1FFF744FF89
:101D20000122002469461F488DF800208DF801200B
:101D30008DF802208DF8034007F0B4FA08B1FFF7E0
:101D400033FF8DF81C404FF480738DF81D4007A9B8
:101D50008DF81E4008940B940C940D940E940F94DF
:101D60000124104822468DF84040119307F052FBA1
:101D700008B1FFF719FF4FF40073012207A90948C2
:101D80008DF84040119307F045FB08B1FFF70CFFB9
:101D900002220021034807F0A1FC08B1FFF704FF6D
:101DA00012B010BD7C550420002800400268044B8E
:101DB0009A4204D1034A136F43F4004313677047F8
:101DC00000280040003802401E48402208B5426307
:101DD0001D4A1E4BC26108220360002302640122D7
:101DE000036343608363C36383600361436183610F
:101DF000C36043628362C36242648364C3640365F5
:101E000043658365C265036607F0C2FC08B1FFF74E
:101E1000CBFE0F484BF680320E4BC26103600423A9
:101E2000036300234360836003618361C360436293
:101E3000836207F0ADFC18B1BDE80840FFF7B4BEFF
:101E400008BD00BF2056042000EE0200045C0140E3
:101E50009C550420245C01400268224B9A4210B534
:101E6000044688B01BD1204B1A684AB91F49486CF8
:101E700040F400004864496C01F4000101910199AB
:101E8000013203A91A481A60F02303930223049332
:101E90000023059306930A23079304F045F822686C
:101EA000144B9A421CD1104B1A684AB90F49486C1E
:101EB00040F400004864496C01F400010291029969
:101EC000013203A90C481A604FF480630393022384
:101ED00004930023059306930A23079304F024F840
:101EE00008B010BD045C01405C05002000380240D1
:101EF00000200240245C014000180240054B064AC5
:101F00001A6000225A609A60DA601A615A619A6116
:101F1000704700BFA4560420002C014070B588B063
:101F200004461422002103A823F05EFA22681E4B07
:101F30009A4236D103F586330C24022603255A6CC7
:101F40000DEB0401194842F400625A645A6C02F421
:101F500000620092009A1A6B42F004021A631A6B34
:101F600002F004020192019A1A6B42F008021A630D
:101F70001B6B049603F00803069507940293029BDB
:101F80004FF4F853039303F0CFFF04230DEB040148
:101F9000074803930023049605930695079403F0DE
:101FA000C3FF08B070BD00BF002C01400008024014
:101FB000000C024008B50B484FF04023036000239B
:101FC00043608360C360036143618361C3610362F3
:101FD0004362836208F0AEFA18B1BDE80840FFF72B
:101FE000E3BD08BD2857042010B588B0044614226C
:101FF000002103A823F0F8F92368B3F1402F1DD185
:1020000003F5FC3303A90E481A6C42F480321A64BB
:102010001A6C02F480320192019A1A6B42F00802A3
:102020001A631B6B03F008030293029B8023039344
:10203000022304930823079303F076FF08B010BD32
:10204000000C024008B510484FF482734FF4407200
:102050000E49C2604FF4007280E80A0000238261DA
:102060000722836003614361C36103624362836249
:1020700003630823C262436308F0EAFA18B1BDE8BB
:102080000840FFF791BD08BD745704200038004098
:1020900030B589B004461422002103A823F0A4F926
:1020A00022681B4B9A4231D103F5003302240525E7
:1020B00003A91A6C174842F480421A641A6C02F49D
:1020C00080420092009A1A6B42F480721A631A6B73
:1020D00002F480720192019A1A6B42F002021A63B2
:1020E0001B6B039403F00203049407950293029B75
:1020F00003F01AFF4FF4404303A90748039300235A
:10210000049405930693079503F00EFF09B030BDC4
:102110000038004000200240000402400E4B07B58A
:102120001A6C0F216FF0010042F080521A641A6C91
:1021300002F080520092009A5A6C42F480425A6433
:1021400000225B6C03F480430193019B03F07CFB52
:1021500003B05DF804FB00BF0038024010B5014633
:1021600088B00022362003F06FFB362003F0B4FB6A
:10217000144B01A903A81A6C134C42F010021A6404
:102180001B6C03F010030293029B06F02BFA06F07F
:1021900009FA0E4B4000236040F2E733E3600C4B3A
:1021A000B0FBF3F001380023606020462361A36098
:1021B00008F0ECFD20B9204608F076FC08B010BD10
:1021C0000120FBE700380240D857042000100040EF
:1021D00040420F007047FEE7FEE7FEE7FEE770476C
:1021E000014808F0BDBC00BF98580420014808F021
:1021F000B7BC00BFD8570420014804F0E1B900BFC4
:10220000F8630420014805F00FBB00BF045F042001
:10221000014803F085BD00BFAC5F042010B588B055
:1022200014220021002403A823F0DEF81248134BE7
:102230000094019402948460C4600461846180E825
:10224000180008F0A3FD08B1FFF7AEFC042303A9B2
:1022500009480393049409F03BFC08B1FFF7A4FC80
:102260000023694604480093029309F097FC08B1E3
:10227000FFF79AFC08B010BD9858042000040040F5
:1022800000B5102289B000210DEB020023F0ACF85C
:1022900000231448144A0193029303938360C3609C
:1022A00003614361836180E80C0008F06FFD08B1B1
:1022B000FFF77AFC4FF4805304A90A48049309F00D
:1022C00045F808B1FFF770FC002301A90548019308
:1022D0000293039309F062FC08B1FFF765FC09B0B3
:1022E0005DF804FB1858042000040140036886B020
:1022F000284A93420BD1284B5A6C42F001025A648F
:102300005B6C03F001030093009B06B07047B3F1D0
:10231000804F0BD103F50E331A6C42F001021A64A0
:102320001B6C03F001030193019BEEE71B4A9342F0
:1023300013D1194B1A6C42F002021A641A6C02F0A3
:1023400002020292029A1A6B42F002021A631B6B9B
:1023500003F002030393039BD7E7114A93420AD188
:102360000D4B1A6C42F008021A641B6C03F0080350
:102370000493049BC9E70B4A9342C6D1064B5A6C9F
:1023800042F002025A645B6C03F002030593059B62
:10239000BBE700BF000001400038024000040040DD
:1023A000000C004000040140026882B0074B9A42D2
:1023B0000AD103F508331A6C42F040021A641B6C10
:1023C00003F040030193019B02B0704700180040E6
:1023D00010B514228AB0044600210DEB020023F050
:1023E00003F823682A4A934216D12A4B1A6B42F00B
:1023F00001021A631B6B03F001030193019B4FF46D
:1024000080730593022305A92348069301230993AA
:1024100003F08AFD0AB010BDB3F1804F0DD103F572
:102420000E331A6B42F001021A631B6B03F00103B7
:102430000293029B4FF40043E3E7184A934211D101
:10244000144B05A916481A6B42F480721A631B6B71
:1024500003F480730393039B0123059302230693E4
:102460000993D5E70F4A9342D4D10A4B05A90E48E8
:102470001A6B42F080021A631B6B03F08003049313
:10248000049B402305930223069309230993BFE786
:10249000000001400038024000000240000C0040F3
:1024A0000020024000180040001C024010B510221D
:1024B0009AB0002400210DEB020022F095FF1C22AF
:1024C000214608A801940294039422F08DFF2C2247
:1024D00021460FA822F088FF2A482B4B8460C46055
:1024E00004614461846180E8180008F04FFC08B181
:1024F000FFF75AFB4FF4805304A92248049308F0D5
:1025000025FF08B1FFF750FB1E4808F0BFFC08B1DB
:10251000FFF74AFB002401A91A480194029403948E
:1025200009F03CFB08B1FFF73FFB6023002208A93C
:102530001448089309940A940B940C940D940E94E7
:1025400008F080FD08B1FFF72FFB4FF40052002385
:102550000FA90C4814924FF000720F93109311932F
:10256000129313931593169317921893199309F0D6
:1025700091FB08B1FFF718FB0248FFF729FF1AB0DB
:1025800010BD00BFD85804200000014010B58EB027
:1025900010220021002403A822F026FF1C2221463D
:1025A00000940DEB02000194029422F01DFF1D48DF
:1025B0004FF080438460C4600461846180E8180047
:1025C00008F0E4FB08B1FFF7EFFA4FF4805303A9DA
:1025D0001448039308F0BAFE08B1FFF7E5FA114872
:1025E00008F054FC08B1FFF7DFFA002469460D48F3
:1025F0000094029409F0D2FA08B1FFF7D5FA6023EB
:10260000002207A907480793089409940B9408F03F
:1026100019FD08B1FFF7C8FA0248FFF7D9FE0EB05E
:1026200010BD00BF1859042010B58EB01022002133
:10263000002403A822F0D8FE1C22214600940DEBB2
:1026400002000194029422F0CFFE1C481C4B8460CF
:10265000C4600461846180E8180008F097FB08B149
:10266000FFF7A2FA4FF4805303A91448039308F02C
:102670006DFE08B1FFF798FA104808F007FC08B1A2
:10268000FFF792FA002469460C480094029409F07E
:1026900085FA08B1FFF788FA60230C2207A90748DA
:1026A0000793089409940B9408F0CCFC08B1FFF749
:1026B0007BFA0248FFF78CFE0EB010BD585804207C
:1026C000000C004010B588B01C220021002401A895
:1026D00022F08AFE0F48104B8460C460046184615C
:1026E00080E8180008F0D2FB08B1FFF75DFA60231C
:1026F000002201A90748019302940394059408F06D
:10270000A1FC08B1FFF750FA0248FFF761FE08B0DC
:1027100010BD00BF585904200018004008B50C48EF
:102720004FF4E13E0B4B0C2280E80840002342614D
:102730008360C36003618361C3610362436209F024
:10274000E9FE18B1BDE80840FFF72EBA08BD00BF8A
:10275000985904200010014008B50C484FF4E13EA0
:102760000B4B0C2280E80840002342618360C36069
:1027700003618361C3610362436209F0CBFE18B158
:10278000BDE80840FFF710BA08BD00BF185A042082
:102790000014014030B514228BB0044600210DEB2B
:1027A000020022F021FE23682B4A934233D12B4BA7
:1027B0000225072405A95A6C294842F010025A64E0
:1027C0005A6C02F010020092009A1A6B42F0020258
:1027D0001A631A6B02F002020192019A1A6B42F01C
:1027E00001021A631B6B069503F00103099402931F
:1027F000029B8023059303F097FB4FF4007305A918
:10280000184805930023069507930893099403F04D
:102810008BFB0BB030BD144A9342FAD10F4B05A984
:1028200012485A6C42F020025A645A6C02F020029C
:102830000392039A1A6B42F004021A631B6B03F0B3
:1028400004030493049BC0230593022306930323EC
:10285000089308230993DAE700100140003802408A
:102860000004024000000240001401400008024041
:1028700008B5034903480AF0F5FF034B187008BD7B
:10288000995A042008490308985A042008B51346A9
:102890000A460146034807F0D3F9003018BF01206B
:1028A00008BD00BFA456042008B513460A460146D9
:1028B000034807F047FA003018BF012008BD00BFE9
:1028C000A456042008B5034807F0A8FD043818BF33
:1028D000012008BDA45604200146014807F002BDAE
:1028E000A456042008B500F057F908BD012307B528
:1028F0008DF8073000F01EF808B98DF807009DF834
:10290000070003B05DF804FB08B5FFF7EFFF0128EF
:102910000CD1074807F084FC48B94FF40061044823
:1029200007F0F2FC003018BF012008BD022008BDEE
:10293000A456042008B54FF40051034803F012FDDB
:10294000B0FA80F0400908BD0008024010B501232C
:10295000054C2370FFF7B6FF234618B9227802F022
:10296000FE022270187810BDA000002037B50123A8
:102970000E4C23700AF07EFFA0B1FFF7C5FF10B91F
:10298000FFF7E4FF20702378012B0BD0084D2A6855
:1029900042B9084903C98DE80300114668460AF0A8
:1029A000FFFF2860207803B030BD00BFA0000020EA
:1029B00060050020AC700208FFF7C8BF124B10B5CD
:1029C0001B7888B01446DB071BD4032903D8DFE843
:1029D00001F010050B12042008B010BD6846FFF787
:1029E0007BFF069B236004E06846FFF775FF079BAB
:1029F00023800020F0E76846FFF76EFF079B5B0A25
:102A0000F0E70320E8E700BFA000002038B50AF097
:102A100039FF47F22F5405460AF034FF401BA0420D
:102A200002D94FF0FF3003E0FFF74CFF0028F3D14D
:102A300038BD00002DE9F04385B00C4617461E4610
:102A4000FFF7E4FF002803DA012005B0BDE8F083BA
:102A5000A3070AD00025DFF89480DFF88C90B542F8
:102A600005EB070123D10020EFE732463946204627
:102A7000FFF71AFF0028E7D11B4B47F2305201A89D
:102A800019680AF0B9FF019B102BDDD1029B022BC4
:102A9000DAD10AF0F7FE00F5EA4430340AF0F2FE2B
:102AA0008442D1D9FFF70EFF0028F7D1CDE70122EC
:102AB0000E48FFF7F9FE0028C6D147F23052D9F888
:102AC000001001A80AF098FF019B102B0AD1029B6D
:102AD000022B07D1204604F500744FF400724146E2
:102AE00022F05DFC0135BAE7600500206405002096
:102AF0002DE9F04385B00C4617461E46FFF786FFCA
:102B0000002803DA012005B0BDE8F083A3070AD04E
:102B10000025DFF88080DFF87890B54205EB0701EB
:102B200018D10020EFE7324639462046FFF7AEFEC7
:102B30000028E7D1164B47F2305201A819680AF075
:102B40005BFF019B102BDDD1029810F1FF3018BF05
:102B50000120D8E701220F48FFF798FE0028D1D1C5
:102B600047F23052D9F8001001A80AF045FF019B46
:102B7000102B0AD1029B012B07D1204604F50074CB
:102B80004FF40072414622F00AFC0135C5E700BF50
:102B90006005002064050020034B4FF0FF32012147
:102BA00018680AF001BF00BF6005002030B58FB083
:102BB000044603A86D4602F019FB104B9DF80C204B
:102BC00019788DF80820914211D0BDF80E1021B16E
:102BD000BDF818200AB159809A81002228468DF844
:102BE00009205A889B890092019315F09DFC95E875
:102BF000070084E8070020460FB030BD64070020BE
:102C000008B511F0D3FB002011F012FA11F050FBBF
:102C1000002013F021FD002011F0B8FA6FF07F4082
:102C200011F012FA044811F071FA06200EF084FB3C
:102C3000BDE808400EF0A4BBF8BE020808B500F0DD
:102C40006BFC4FF4FA6002F0D7FB00F085FC4FF408
:102C5000FA6002F0D1FB00F0DDFC4FF4FA6002F004
:102C6000CBFB00F035FD4FF4FA6002F0C5FB00F03D
:102C7000B7FD4FF4FA6002F0BFFB00F063FE4FF4C3
:102C8000FA6002F0B9FB00F089F84FF4FA6002F044
:102C9000B3FB00F0DFF84FF4FA6002F0ADFB00F098
:102CA0005FF94FF4FA6002F0A7FB00F0DFF94FF490
:102CB000FA6002F0A1FB00F05FFA4FF4FA6002F054
:102CC0009BFB00F0F3FA4FF4FA6002F095FB00F082
:102CD00007FB4FF4FA6002F08FFB00F04DFB4FF45E
:102CE000FA6002F089FB00F0C1FB4FF4FA60BDE826
:102CF000084002F081BB2DE9FF47002511F056FB8B
:102D0000FFF79CFF0020A9462E4611F091F911F023
:102D1000CFFA0B2011F030F901A8FFF747FF9DF81B
:102D20000C30A3B3019FDDF80880A5B3FEF796FB36
:102D30000446FEF793FB8246FEF790FBFF23B0FBB1
:102D4000F3F2C2EB0222801ABAFBF3F2B4FBF3F304
:102D5000C3EB032340F07F40C2EB0222E41AAAEB4C
:102D6000020A240440EA0A2004F47F04204311F0FC
:102D70006BF943463A46494630460EF027FB14F0BD
:102D800073F8052015F0E8FCC1463E46C4E7C84686
:102D900037461D46F3E70125F1E7000070B5002036
:102DA000022411F051F9284E11F082FA274811F04F
:102DB000ADF96FF07F4011F047F918F011F80546B2
:102DC00018F024F8A0F11402A5F16401304692FB3A
:102DD000F4F291FBF4F111F007FF4FF47A7002F076
:102DE0000BFB012013F038FC194811F02DF917F0F6
:102DF000F7FF054618F00AF800216A1E431E084630
:102E000012F0FCFA002013F027FC4FF47A7002F065
:102E1000F3FA204611F0BAF96FF07F4011F014F97F
:102E200017F0DEFF054617F0F1FFA0F11402A5F13F
:102E30006401304692FBF4F291FBF4F11E32BDE8DE
:102E4000704011F0D1BE00BF25490308A0800208E0
:102E5000000040A0F8B50020022413F0FDFB002084
:102E600011F0E6F811F024FA6FF07F4011F0ECF861
:102E7000364811F04BF917F0B3FF054617F0C6FFBF
:102E800095FBF4F190FBF4F2314811F0C1FE012002
:102E900013F0E2FB2F4811F0D7F817F0A1FF054619
:102EA00017F0B4FF064617F09BFF074617F0AEFF7A
:102EB00097FBF4F290FBF4F396FBF4F195FBF4F539
:102EC000143314326439A5F1640012F097FA2248E1
:102ED00011F0BAF817F084FF054617F097FF064681
:102EE00017F07EFF074617F091FF97FBF4F290FB77
:102EF000F4F396FBF4F195FBF4F53C333C323C39AA
:102F0000A5F13C0012F07AFA144811F09DF817F080
:102F100067FF054617F07AFF064617F061FF074680
:102F200017F074FF97FBF4F290FBF4F396FBF4F1C7
:102F300095FBF4F46433A4F114006432143912F0F4
:102F40005DFA0020BDE8F84013F086BBA0800208BF
:102F500032490308FF0000C000FF00800000FF406E
:102F6000F8B50020022413F077FB002011F060F880
:102F700011F09EF96FF07F4011F066F8364811F0BD
:102F8000C5F817F02DFF054617F040FF95FBF4F14B
:102F900090FBF4F2314811F03BFE012013F05CFB92
:102FA0002F4811F051F817F01BFF054617F02EFFC0
:102FB000064617F015FF074617F028FF97FBF4F2B7
:102FC00090FBF4F396FBF4F195FBF4F51433143213
:102FD0006439A5F1640012F011FA224811F034F8B6
:102FE00017F0FEFE054617F011FF064617F0F8FE33
:102FF000074617F00BFF97FBF4F290FBF4F396FBF8
:10300000F4F195FBF4F53C333C323C39A5F13C003E
:1030100012F0F4F9144811F017F817F0E1FE054624
:1030200017F0F4FE064617F0DBFE074617F0EEFE3B
:1030300097FBF4F290FBF4F396FBF4F195FBF4F4B8
:103040006433A4F114006432143912F0D7F900206B
:10305000BDE8F84013F000BBA08002083249030825
:10306000FF00008000FF00800000FF8013B54FF4D8
:1030700000000F2410F0DCFF11F01AF94FF6FF707A
:1030800010F0E2FF06200EF057F9062010F074FF52
:103090000F21084612F05AF928234FF4D2720F215B
:1030A000782012F033FD37234FF4D2721E2178209E
:1030B0000EF08CF93F233C2226211E200FF03EF813
:1030C0003F2364222621142012F098F900947D23D6
:1030D000E1224B21962012F08DFE00947D23E12207
:1030E0004B2196200DF086FD00947D234FF4E17274
:1030F0004B2140F2771013F049FE7D2300944FF4EA
:10310000E1724B2140F277100DF086FD1E229621D0
:103110002D2010F0DBF964228821F0200DF0B4FAA4
:103120001E2296214FF4877010F072FA1E2296210B
:103130004FF487700DF040FA22234B22E1217820D2
:1031400010F088FB22234B22E1214FF4B47010F0E1
:1031500081FA22234B22E1214FF4B4700DF0FCFAE6
:10316000E122C321024802B0BDE8104011F050BD79
:103170006A490308000000002DE9F0470020ADF582
:10318000667D4FF0000A002400250026424F10F013
:103190004FFF11F08DF86FF07F4010F055FF0FF2E8
:1031A000E809D9E9008922462B4620462946FDF741
:1031B0003DF842464B46FDF7EBF932463B46FDF7FC
:1031C00011FB41EC100B22F08FFE0022334B51EC2F
:1031D000100BFDF7DDF90022314BFDF727F8FDF765
:1031E00087FC2DF81A000AF1010A2046294628A377
:1031F000D3E90023FDF71AF8BAF5E67F04460D4639
:10320000D1D12848042410F01FFF022010F0B4FE92
:1032100020462C344FF4EB720A2111F0FBFFB4F579
:103220009C7FF5D10A2420462E344FF48672042167
:1032300012F0BAF8B4F5017FF5D1062010F09CFE2B
:10324000194810F001FF684645230A224FF4E67141
:1032500011F054FF684644230A224FF4E67111F03E
:103260004DFF684643230A224FF4E67111F046FFF2
:1032700042230A224FF4E671684611F03FFF0DF534
:10328000667DBDE8F08700BF182D4454FB2109403E
:1032900091852C64210BE93F00806640000051C0FD
:1032A00000005140906830FF40FF00FF08B54FF428
:1032B000000010F0BDFE10F0FBFF4FF6FF7010F0A5
:1032C000C3FE054810F022FF64220A210348BDE82E
:1032D000084011F089BC00BFB82203081C4903084C
:1032E0002DE9F04320488FB0204C10F0A1FE10F0E3
:1032F000DFFF012010F040FE02AD0DF120090FCCE0
:103300000FC594E80300083485E803000FCC08AD2E
:103310000FC594E80300002485E80300264601ADAC
:10332000A04655F8047F59F82400013410F08CFEB3
:1033300033467822882196208DE8800111F096FF8F
:10334000062C0FD10A4810F0E1FE6FF07F4010F01C
:103350007BFE96224FF4A07106480FB0BDE8F04303
:1033600011F056BC2E68DCE780808000B470020843
:10337000F8BE02084849030870B5354A86B00A24E9
:1033800010686B46516803C3906818604FF47F4023
:1033900010F04EFE10F08CFFFF2010F055FE22467C
:1033A00020460A343C231E2112F0B0FBB4F5F07F16
:1033B000F5D10A2422460334A021502010F086F8CB
:1033C000342CF7D1C8240025224E234810F03CFEAF
:1033D00006FA05F0063510F037FEA4F1320120465A
:1033E0000F341E2210F014F9B4F5827FF0D14FF49F
:1033F000C8740025174E06FA05F0063510F024FEB5
:10340000A4F1FA0120460F341E220DF0D5F8B4F5D0
:10341000E67FF0D10120052410F06CFE6E238C2293
:103420000321684613F06EFC23460322694603A875
:10343000053413F08FFD6E238C22032103A813F0B3
:1034400061FC322CF0D1002010F054FE06B070BDAB
:10345000E4700208F0FF0F0000FFFF0008B517F04E
:10346000FFFD10F091FC20F07F4008BD38B5274CDF
:103470002046FDF7A8FF0020FDF7D3FF002010F045
:10348000D7FD10F015FF3C210846FFF7E7FF054682
:1034900020461F4CFDF797FF2846FDF7C2FF204648
:1034A000FDF791FFFF20FDF7BCFFFF2010F0CCFDE2
:1034B00064230A211A46084611F0A0FF3C21084661
:1034C000FFF7CCFF05462046124CFDF77CFF28464F
:1034D000FDF7A7FF2046FDF776FF4FF47F00FDF7CD
:1034E000A0FF4FF47F0010F0AFFD3C21084611F023
:1034F000F3FE3C210846FFF7B1FF05462046FDF7E5
:1035000062FF2846BDE83840FDF78BBF4C490308F1
:10351000564903086049030838B5FFF771FB0D48A9
:1035200010F0F4FD10F0FEFB17F05AFC054617F002
:103530006DFC04466FF07F4010F086FD10F018FC23
:10354000022194FBF1F295FBF1F10A3ABDE8384013
:1035500011F05EBBF8BE020873B54FF47F0002267F
:1035600010F066FD10F0A4FE002010F0C3FD6FF017
:103570007F4010F069FD17F033FC044617F046FC5D
:103580001421FF224FF6FF738DE80C00A0F1140305
:10359000A4F11402084611F0D7FC17F021FC90FBAF
:1035A000F6F417F033FC90FBF6F5304610F0EEFD24
:1035B000124810F0ABFDA5F11E022146104811F093
:1035C00027FB05F10F0221460E4811F021FB0E48A2
:1035D00011F006FB10F0CCFB11F002FB0B4810F0D1
:1035E00095FD05F13C022146094811F011FB002030
:1035F00002B0BDE8704010F0C9BD00BFB80D0308AF
:1036000025490308874A030854490308FC7802083F
:103610008F4A030808B5FFF7F3FA274810F076FD44
:103620004FF47F0010F004FD10F042FE0A2010F06D
:10363000A3FCFF2010F008FDCD234FF4BE72412102
:10364000642012F063FA41234FF4BE72CD2164204E
:1036500012F05CFA002010F0EBFC6FF07F4010F0ED
:10366000F3FC002010F092FD4622F021134811F0E7
:10367000CFFA042010F08AFD6422F021104811F0E6
:10368000C7FA022010F082FD8222F0210D4811F0CD
:10369000BFFA012010F07AFDA022F0210A4811F0B3
:1036A000B7FA062010F072FDBE22F0210748BDE8EF
:1036B000084011F0ADBA00BF40010308F549030806
:1036C0000D4A0308224A0308394A03084E4A0308F0
:1036D00008B52DED028B10F0EBFD002010F0A8FCDA
:1036E0006FF07F4010F0B0FC002010F04FFDDFEDD8
:1036F000348A344810F00AFD14220021324811F0B7
:1037000073FA9FED328AB0EE680A092015F02AFAA2
:10371000642010F007FCB0EE480A092015F022FAE8
:103720003C2200212A4811F05FFAB0EE680A02211B
:10373000092015F0C5F8642010F0F4FBB0EE480A3B
:103740000221092015F0BCF864220021214811F063
:103750004BFAB0EE680A0221092015F061FA6420E4
:1037600010F0E0FBB0EE480A0221092015F058FAEB
:103770008C220021184811F037FAB0EE680A0320B5
:1037800015F0DEF8642010F0CDFBB0EE480A0320FF
:1037900015F0D6F8B4220021104811F025FAB0EE49
:1037A000680A032015F07CFA642010F0BBFBB0EE31
:1037B000480A0320BDEC028BBDE8084015F070BA42
:1037C000DFE9F6428801030871490308DFE9F6C220
:1037D0008149030894490308A8490308BB49030821
:1037E000F0B58FB0474B04AA03F1200615461868C0
:1037F000083353F8041C1446B34203C42246F6D1DE
:1038000018680226404A0C279B882060A38002ABE0
:103810001068516803C33D4810F078FCBDF90830CA
:10382000BDF90C1001222846C91A11F003FB044609
:1038300010F078FABDF80A3014FB0030ADF80E0035
:1038400017F0CEFABDF90C30C31A93FBF6F417F05B
:10385000DDFABDF90E10BDF80820A3B2401A0EAC77
:103860001A4490FBF6F0ADF8082080B2BDF80A20AB
:1038700002440844ADF80A20BDF80C20ADF80E0053
:1038800000201344ADF80C3010F0D2FB10F010FD06
:1038900006200DF051FD032010F06EFB4FF47F0069
:1038A00010F0D2FBBDF90E30BDF90C20BDF90A10A5
:1038B0000A33BDF908000A320A3900970A3813F0B2
:1038C00065FA6FF07F4010F0BFFB34F9300DBDF9A1
:1038D0000E30BDF90C200A38BDF90A100A330A323D
:1038E00000970A390DF086F9304610F04FFC0020A1
:1038F00010F05CFC01233A462146284611F0B4FA48
:103900000FB0F0BDCF490308F0700208F8BE0208FE
:1039100038B5044610F0DEF9B4F9045017F060FA37
:10392000854203DB17F05CFA0138A080B4F9065039
:1039300017F06CFA854203DB17F068FA0138E08073
:1039400038BD0000F0B589B0534B04AA03F1080656
:1039500015461868083353F8041C1446B34203C4D0
:103960002246F6D14D4A022618680C271B79516869
:103970002060237102AB106803C3494810F0C6FBF6
:1039800010F0D0F90446474811F072FABDF808303B
:1039900003EB4403ADF80C30BDF80A301844ADF821
:1039A0000E0017F01DFABDF90C30C31A93FBF6F4A4
:1039B00017F02CFABDF90E10BDF80820A3B2401A7A
:1039C00008AC1A4490FBF6F0ADF8082080B2BDF8C0
:1039D0000A2002440844ADF80A20BDF80C20ADF8D6
:1039E0000E0000201344ADF80C3010F021FB10F055
:1039F0005FFC06200DF0A0FC032010F0BDFA4FF490
:103A00007F0010F021FBBDF90E30BDF90C20BDF98F
:103A10000A100A33BDF908000A320A3900970A3839
:103A200013F0B4F96FF07F4010F00EFB34F9180D6D
:103A3000BDF90E30BDF90C200A38BDF90A100A3361
:103A40000A3200970A390DF0D5F8304610F09EFB87
:103A5000002010F0ABFB2846FCF7DAFB124B0E22DD
:103A6000214600930346284611F00CFA2046FFF742
:103A70004FFFBDF90800FDF7E4FCBDF90C00FDF7B0
:103A8000E0FCBDF90A00FDF7DCFCBDF90E00FDF716
:103A9000D8FC09B0F0BD00BF7A4A0308F8700208EC
:103AA000F8BE0208724A03087C0000204FF45C3123
:103AB00001480FF009BB00BF9007002030B5294C2A
:103AC0008FB00025204603F0A1FE274B2046A560BD
:103AD000E560256184F8345084F8355084F8365018
:103AE00084E82800282363610923A3613523E36167
:103AF0000B23236240F21523636240F21B13A3627F
:103B000040F23523E36240F21D13236303F0A4FD6A
:103B100008B1FEF749F802214FF4F0724FF48873B0
:103B200010480591FF21029206914FF4C0610B925B
:103B3000002208910721019509914FF0404103951A
:103B40000A9101A9049307950C938DF834508DF8D0
:103B500035508DF8365003F0C5FE08B1FEF724F855
:103B60000FB030BD045F04200068014015481022EA
:103B7000154B042100B50261402289B00360426107
:103B80004FF4C0720023C16082614FF40062436051
:103B900002624FF48052836042620722C3618362F3
:103BA0000223029204920322039169440193059235
:103BB0000693079306F074FC08B1FDF7F5FF09B012
:103BC0005DF804FBEC5F0420400100A02DE9F34107
:103BD000224C0126224D4FF00008102721464FF6B7
:103BE000FF722846CDF80480A660C4F80C8084E8F3
:103BF000C00006F075FC304601F0FEFB02232146B2
:103C00004FF6FF722846A660C4F80C8084E888004E
:103C100006F066FC032321464FF6FF722846C4F8DF
:103C20000C8084E888000823A36006F059FC4FF458
:103C30000C734FF6FF722146284601930423A660B9
:103C400084E88800019BE36006F04AFC40F26F6163
:103C5000284606F05CFC02B0BDE8F08190770320B6
:103C6000EC5F042008B50D480D4B03600023836210
:103C7000C3620363436343608360C36001F0FCFF7E
:103C800008B1FDF791FF0121044802F0D3F818B103
:103C9000BDE80840FDF788BF08BD00BFAC5F042049
:103CA00000B002400268404B9A4270B58CB078D1A7
:103CB00003F55043002402250E265A6C07A93B4801
:103CC00042F080625A645A6C02F080620192019A5A
:103CD0001A6B42F010021A631A6B02F01002029281
:103CE000029A1A6B42F400721A631A6B02F40072A1
:103CF0000392039A1A6B42F480621A631A6B02F4FD
:103D000080620492049A1A6B42F040021A631A6BA2
:103D100002F040020592059A1A6B42F480721A630F
:103D20001B6B089503F480730693069B102307937F
:103D300009940A940B9602F0F7F84EF6FF7307A960
:103D40001B480793089509940A940B9602F0ECF827
:103D5000F72307A917480793089509940A940B9627
:103D600002F0E2F84FF4805307A9134807930923A0
:103D700008950B9309940A9402F0D6F84FF4464341
:103D800007A90E480793089509940A940B9602F028
:103D9000CBF858202246052101F056FD582001F0AD
:103DA0009BFD0CB070BD00BF0068014000100240D8
:103DB0000024024000280240001802400020024077
:103DC00008B50268124B9A4220D1124A10211248BB
:103DD000536C23F08063536402F0FAF94EF6FF71DE
:103DE0000E4802F0F5F9F7210D4802F0F1F94FF411
:103DF00080510C4802F0ECF90B484FF4464102F0B8
:103E0000E7F95820BDE8084001F07ABD08BD00BFC1
:103E100000680140003802400010024000240240C7
:103E20000028024000180240002002402B4BF0B551
:103E30001C6887B0002C4ED10122022703260C25D6
:103E40001A6001A9264B27489A6B42F001029A6337
:103E50009B6B029703F00103039404960093009B6D
:103E60004FF683730595019302F05EF848F2331321
:103E700001A91D480193029703940496059502F049
:103E800053F84CF2037301A9184801930297039465
:103E90000496059502F048F84FF63F0301A914482F
:103EA0000193029703940496059502F03DF82823A8
:103EB00001A910480193029703940496059502F016
:103EC00033F8082301A90C48019302970394049640
:103ED000059502F029F807B0F0BD00BFA0770320D8
:103EE000003802400010024000180240000C02405E
:103EF00000140240001C02400008024007B50D4BB0
:103F000002689A4212D1A3F5F0435A2005211A6B98
:103F100042F400021A6300221B6B03F400030193B6
:103F2000019B01F091FC5A2001F0D6FC03B05DF832
:103F300004FB00BF00B002400022014B1A70704722
:103F4000A4770320044A1C2303FB0023DA681869C2
:103F50005B69504358437047A8D10320024B1A783D
:103F6000002AFCD1704700BFA4770320F8B5069D56
:103F700017461E46FFF7F2FF01220C4B0C4C2D0496
:103F80001A704FF4813315432360E060E163002130
:103F900021612164E76166636564236843F400730B
:103FA00013432360BDE8F840FFF7D8BFA477032090
:103FB00000B002402DE9F843099F90460A9E8946C9
:103FC0001D460899FFF7CAFF01220E4BADB20E4CF9
:103FD0001A7045EA08450D4B23600023C4F80C9085
:103FE0006061E0632161A7612764E36166626663E3
:103FF0006564236843F4007313432360BDE8F8430A
:10400000FFF7ACBFA477032000B00240000202001B
:10401000F0B5002485B0042702940A9D0B9C95FB03
:10402000F7F594FBF7F4AD1AA41A01950094FFF785
:10403000C1FF05B0F0BD0000012835D8224B234A4E
:1040400053F820302249934218BF8B422CD0214A8A
:10405000934229D0204A934228D0204A934225D027
:104060001F4A934224D01F4A934221D01E4A9342B2
:1040700020D01E4A93421FD01D4A1E498B4218BFB2
:1040800093421D490CBF012200228B4208BF42F01F
:1040900001029AB9194A934210D0194A93420FD09B
:1040A000184A93420ED0FEE7002070470120704767
:1040B0000220704703207047042070470520704796
:1040C0000620704707207047B04A03086C72020848
:1040D000DC71020824720208547202080C72020891
:1040E000F47102083C720208AC710208C471020843
:1040F000347102084C710208647102087C71020874
:104100001C710208947102082DE9F047089D8A4647
:1041100091461E46DDF82480ADB20A9FFFF71EFFD0
:104120000D4B01220D4C45EA06451A70FFF784FF3E
:104130004FF400732360C4F80CA0C4F83C90C4F89A
:1041400010802764E0616564236843F00103236005
:10415000BDE8F047FFF702BFA477032000B002409C
:10416000F0B585B015460646FFF7ECFE1C230A4A5B
:104170007343D758D418002300FB057202930193B0
:10418000236900FB017130460093E368FFF7BCFF31
:10419000A56005B0F0BD00BFA8D103202DE9F04710
:1041A00007461C269A4614467E43FFF7CBFE114B6A
:1041B00008AD9A199B5995E82003D668D2F814E007
:1041C000526804FB0614CDF82090504305FB06A26C
:1041D000A6EB08060EFB04340EFB02320023211866
:1041E00009960A93024443463846BDE8F047FFF774
:1041F0008BBF00BFA8D103202DE9F14F0746984699
:104200001446FFF79FFE1C23144A0C9D7B43DDF8E8
:104210002890DDF82CA002EB030EDEF80C6004FB06
:104220000614D158DEF81430A6EB0906DEF8082093
:1042300003FB0414022341460C9602FB004238465D
:10424000CDF828A095FBF3F54B46A5EB09050B959A
:1042500001B0BDE8F04FFFF757BF00BFA8D1032062
:104260002DE9F04781469A461746FFF76BFE1C2260
:104270001F4B0A9E02FB09F2DDF82080099C03EB2C
:10428000020E9A580423A4B2DEF80C5044EA084403
:1042900007FB0517DEF81410A5EB080501FB07273F
:1042A000DEF8082096FBF3F602FB0077FFF756FED8
:1042B0000122104B4846A6EB08061A70FFF7BCFE19
:1042C0000D4A0E4B13600023C2F80CA0D763576150
:1042D000166115649561D36150625063546413682C
:1042E00043F00103BDE8F0471360FFF737BE00BF9E
:1042F000A8D10320A477032000B0024000020200EE
:104300002DE9F74F06461C27984601911446FFF702
:1043100093FE83463046FFF715FE7743144A019912
:1043200002EB070ED2590E9DDEF80C60DEF8143059
:1043300004FB0614DDF83090DEF80870414603FBFC
:1043400004240423DDF834A0A6EB09064A4607FB43
:104350000040CDF838B00D9695FBF3F55346A5EB2C
:1043600009050C9503B0BDE8F04FFFF723BE00BF71
:10437000A8D103202DE9F74F81461C269A460191CA
:1043800006FB09F61446FFF7DDFD1B4A0199931958
:10439000DDF830800D9FDD68DDF838B047EA08476A
:1043A00004FB051491595A69ABEB0806A5EB080507
:1043B00002FB04149A6802FB00444846FFF73CFEE7
:1043C000FFF7CCFD01220D4B1A704FF481330C4ADC
:1043D00013600523C2F80CA0D46316611564D36181
:1043E00050635764136843F00103136003B0BDE8E2
:1043F000F04FFFF7B3BD00BFA8D10320A47703207F
:1044000000B0024073B514460D461A4600230094CE
:10441000FFF7ACFD2B462146032903F110030AD810
:10442000A30805EB0311A4EB830401EB8404A14270
:1044300043D102B070BD53F8102C04391606C2F3F4
:10444000074040EA162002F47F46D243304302F090
:104450007F42024343F8102C53F80C2C1606C2F38B
:10446000074040EA162002F47F46D243304302F070
:104470007F42024343F80C2C53F8082C1606C2F373
:10448000074040EA162002F47F46D243304302F050
:104490007F42024343F8082C53F8042C1606C2F35B
:1044A000074040EA162002F47F46D243304302F030
:1044B0007F42024343F8042CAEE70B681806C3F3AF
:1044C000074242EA102203F47F40DB43024303F039
:1044D0007F43134341F8043BA9E70023FFF792BF52
:1044E0000423FFF78FBF0223FFF78CBF0323FFF7DF
:1044F00089BF0000F7B506463D4D1746032F06F16C
:10450000100605F1100511D894083A4F2501A2EBC9
:1045100084042F44284407EB8406B74254D1009208
:1045200000223448FFF722FD03B0F0BD56F8104CCE
:10453000043F4FEA046CC4F3074E4EEA1C2E04F409
:104540007F4CE4434EEA0C0E04F07F444EEA040430
:1045500045F8204C56F80C4C4FEA046CC4F3074E57
:104560004EEA1C2E04F47F4CE4434EEA0C0E04F099
:104570007F444EEA040445F81C4C56F8084C4FEAB8
:10458000046CC4F3074E4EEA1C2E04F47F4CE44343
:104590004EEA0C0E04F07F444EEA040445F8184C31
:1045A00056F8044C4FEA046CC4F3074E4EEA1C2E36
:1045B00004F47F4CE4434EEA0C0E04F07F444EEAD0
:1045C000040445F8144C99E750F8044B4FEA046E84
:1045D000C4F3074545EA1E2504F47F4EE44345EA4B
:1045E0000E0504F07F442C4347F8044B95E700BFC9
:1045F000B8770320A87703200023FFF77BBF0423AD
:10460000FFF778BF0223FFF775BF0323FFF772BFE1
:104610002DE9F047089C81460E4617461D46DDF8F9
:1046200024800FF073FB012811D100221921484684
:1046300017F06EFA2A4639463046234615F050FDEB
:104640004846204A1921BDE8F04717F061BA4846AC
:10465000AD1BFFF777FC1C211B4AE41B01FB09F192
:104660000135013402EB010E5158A4B2DEF80C30D2
:10467000DEF8142044EA054403FB0766A3EB050AB1
:1046800002FB0616DEF8082002FB0066FFF766FC58
:1046900001220E4B48461A70FFF7CEFC0C4B0D4A18
:1046A0001A60C3F83880DE63C3F840A058635C64C6
:1046B0001A6842F4007242F00102BDE8F0471A6045
:1046C000FFF74CBC11460008A8D10320A4770320B3
:1046D00000B00240000203000023FFF793BE002356
:1046E000FFF708BF08B50948094B036101F0C4FA98
:1046F00008B1FDF759FA0121044801F09BFB18B1FC
:10470000BDE80840FDF750BA08BD00BFAC5F04200B
:10471000393F0008F8B50646134C00254FF0FF3727
:104720006168002915DBE2682369606953432268E8
:104730004B4300FB0323326802F1840000EBC510F9
:1047400083622846536A43F00103536212F0C2FBAE
:10475000676001351C34022DE2D130460021BDE8EE
:10476000F84003F0A9BA00BFA8D1032000235149A3
:1047700051481A462DE9F0410FF0D2FF002016F003
:104780001FFB044600287DD04FF4F0724FF488716F
:10479000002017F00BFA4FF4F0724FF488710020EC
:1047A00017F036FA01230022424943480FF0B8FFC0
:1047B000012016F005FB002870D04FF4F0724FF482
:1047C0008871012017F0F2F94FF4F0724FF48871FC
:1047D00001203A4D17F01CFA4FF040430024DFF857
:1047E00028812B6003F5FF23354F364EEB6158F8D7
:1047F00024302046AB614FF0FF336B6016F0A0FA17
:10480000C0103A4621216861204617F081F93246EE
:104810002321204617F07CF92B4A1921204617F056
:1048200077F92A4A2521204617F072F9284A2421CF
:10483000204617F06DF9274A2821204617F068F91D
:104840002046013455F81C1B17F0CAF9022CCED1B2
:10485000214922480DF08EF9214922480DF01CFC17
:10486000214922480DF042FA214922480DF03AFC34
:10487000214922480DF05AFA21492248BDE8F04169
:1048800014F044BD4FF488724FF4F07117F08EF9B4
:104890004FF488724FF4F071204681E74FF488722C
:1048A0004FF4F071012017F081F94FF488724FF442
:1048B000F0718DE7F4710208C8780208A8D10320CE
:1048C000614100089D410008114600087543000839
:1048D000F941000861420008ED4400080B46000859
:1048E000E744000805460008E1440008FF450008C9
:1048F000DB440008F9450008D9460008DF460008F7
:104900000143000811400008B04A030837B50339D5
:10491000044615460B297ED8DFE801F00620272E35
:104920004E48345E7D646E191C233C4A6D684343D7
:10493000D018D3582246C1684069694300FB013151
:10494000374803F08FF90025284603B030BD1C23FB
:10495000324A03FB00242B686360F4E7034601221C
:1049600029462F4803F07CF8EDE72D4B1A68936930
:1049700043F001039361E6E7294B1A68936923F03A
:104980000103F7E71368C401254A012B1368126875
:1049900003F1840319590CBF41F0010121F0010119
:1049A0001951536A43F001035362CCE7034606CA28
:1049B0001B4803F0E3F8C6E701AA694612F0D2FBF0
:1049C000164A1C2303FB04232A68DA606A681A610A
:1049D00023469DE80600EBE702462968104803F0ED
:1049E00011F9B0E7156801460D4815B103F080F8DC
:1049F000A9E703F09FF8A7E713681A04C3F3074178
:104A000003F47F4302F47F02114302460448194332
:104A100003F000F897E74FF0FF3595E7A8D10320A2
:104A2000045F042008B5FFF7A1F8FFF7CFF8FFF700
:104A300045F8FFF717F9BDE80840FFF753BE0FF040
:104A4000B5BC000004290AD0052904D0022905D1EB
:104A5000044B197070470322024B1A7070470122F1
:104A6000FAE700BFE0D1032008B501220B490C484A
:104A70000AF068FE08B1FDF797F80A4908480AF0FD
:104A800095FE08B1FDF790F805480AF0C1FE18B18F
:104A9000BDE80840FDF788B808BD00BF454A0008DA
:104AA00020600420D80000200368B3F1A04F30B587
:104AB00089B032D11A4C002503A91A48236B43F060
:104AC00001032363236B059503F001030093009B0F
:104AD0004FF4E053039302230493032306930A2322
:104AE000079301F021FA636B43202A46052143F026
:104AF00080036363636B03F080030193019B636C2A
:104B000043F480436364636C03F480430293029B29
:104B100000F09AFE432000F0DFFE09B030BD00BF78
:104B20000038024000000240D0F8C0020BF015B877
:104B3000D0F8C0020BF027B8D0F8C0020BF040B894
:104B4000D0F8C0020BF060B8D0F8C0020BF013B878
:104B5000D0F8C0020BF013B810B590F8C03304467B
:104B6000012B1CD10F484FF0A04302220360082301
:104B7000C4F8C40383600323C0F8C042C3600023A9
:104B800082610361C36101F065FC08B1FDF70CF8B7
:104B9000044802F061F8014620460AF0DBFF0020DD
:104BA00010BD00BFF863042008B5D0F8C40302F0BC
:104BB0001DF803289ABF024B185C022008BD00BFF5
:104BC000BB4A030808B5D0F8C40302F025F803284F
:104BD0009ABF024B185C022008BD00BFBB4A030805
:104BE00008B5D0F8C40302F03AF802289ABF024B85
:104BF000185C012008BD00BFB84A030808B5D0F80A
:104C0000C40302F01BF803289ABF024B185C022071
:104C100008BD00BFBB4A0308D0F8C40302F017B8B0
:104C20001FB5BDF8204002949DF81C4001949DF8EA
:104C300018400094D0F8C40301F0C0FB032896BFCD
:104C4000024B0220185C04B010BD00BFBB4A030831
:104C500008B5D0F8C40301F0EAFB03289ABF024B61
:104C6000185C022008BD00BFBB4A03081FB59DF8B1
:104C700024400394BDF820400294079C01949DF8C1
:104C800018400094D0F8C40301F038FC032896BF04
:104C9000024B0220185C04B010BD00BFBB4A0308E1
:104CA000D0F8C40301F0CDBF08B590F8C033012B94
:104CB00002D1084600F016F8C82000F09DFB002045
:104CC00008BD2823D0F8C40303FB010191F83B3051
:104CD0001BB181F850200020704781F85120FAE77D
:104CE00000F08ABBB0FA80F220210248520901F09C
:104CF0004BBB00BF000C0240002070477047000013
:104D000037B500230F4C05468DF8073023781BB9C3
:104D100000F0E8F9012323700324EDB2013CA8213F
:104D2000284600F0F5F914F0FF048DF807009DF80F
:104D30000730DBB203D19DF8070003B030BD512B23
:104D4000ECD1F8E7E4D1032013B500240221C0B26E
:104D50008DF8074000F0DCF98DF807009DF807306A
:104D600003F00F038DF807309DF80730052B01D9AC
:104D70008DF807409DF80720034B9DF807005A70F7
:104D800000229A7002B010BDE4D103202DE9F74F44
:104D9000294D174600248946AB786A788DF807407C
:104DA0009A4241D9092B42D8244AD15C244A12F8AC
:104DB00003B0244A12F803A0234AD45C5FFA80F8B7
:104DC000224E404600F0A4F98DF807009DF8073008
:104DD00059464046338000F09BF98DF80700514654
:104DE0009DF80730404632881B0203F4706313437A
:104DF000A9F80030338000F08BF98DF807002146C8
:104E00009DF807304046338000F082F98DF80700A6
:104E10009DF8073032881B0203F47063134333801C
:104E20003B80AB780133AB7003B0BDE8F08FA24696
:104E3000A3462146C2E700BFE4D10320BF4A0308CE
:104E4000C94A0308D34A0308DD4A0308E2D1032014
:104E50000122A421C0B200F04BB90022A421C0B2AB
:104E600000F046B9FFF7F9BF7047000010B5054CD8
:104E7000C82000F061F923781BB900F033F9012351
:104E8000237010BDE4D10320002313B50C46C0B23B
:104E900001218DF8073000F03BF98DF807009DF8EF
:104EA0000730236002B010BD2DE9F3411F461C4BB3
:104EB000002490465B788DF807408B422DD9092954
:104EC000C5B296BF174A2346174B284697BF565C74
:104ED00026465B5C154A98BF545C194600F018F9E9
:104EE0008DF807009DF807102846089B890919606E
:104EF000314600F00DF98DF807009DF80730214686
:104F00002846C8F8003000F003F98DF807009DF836
:104F10000720120902F004023A6002B0BDE8F081F5
:104F2000E4D10320F14A0308E74A0308FB4A0308D7
:104F300070B58AB0054602F07BFA002854D14A4B7E
:104F400000264A4C9D42AE602E610CBF484A494A39
:104F50009D426E612A60484AEE616A604FF001022C
:104F60002E62EA60236B41D143F0800305A94348D8
:104F70002363236B079603F080030193019B802337
:104F8000059312230693022308930423099300F048
:104F9000CBFF4FF4807305A93848059300F0C4FF98
:104FA000236C32460F21482043F400032364236C12
:104FB00003F400030293029B236A43F40003236279
:104FC000236A23F40003236200F03EFC482000F033
:104FD00083FC492032460F2100F036FC492000F0C6
:104FE0007BFC284601F0BCFF0AB070BD43F0020311
:104FF00005A923482363236B079603F00203039359
:10500000039B4FF4807305931223069302230893A6
:105010000423099300F088FF4FF4007305A9184892
:10502000059300F081FF236C32460F211F2043F4CB
:1050300000132364236C03F400130493049B236A7A
:1050400043F400132362236A23F40013236200F065
:10505000FBFB1F2000F040FC202032460F2100F017
:10506000F3FB2020BBE700BFE8D10320003802405B
:10507000005C00400054004032279140001C024078
:105080000004024030B54FF47A7485B005460294AE
:10509000BDF824400194089C009402F001F90446F4
:1050A00028B1284602F006F82846FFF741FF2046BF
:1050B00005B030BD30B54FF47A7485B00546029422
:1050C000BDF824400194089C009402F027F804469F
:1050D00028B1284601F0EEFF2846FFF729FF2046B9
:1050E00005B030BD0148FFF723BF00BFE8D1032062
:1050F0001FB504AC012304F8012D0A4601460193B3
:1051000000940248FFF7D6FF04B010BDE8D1032099
:105110001FB5002304AA02F8013D01238DE80C000D
:105120000A4601460348FFF7ADFF9DF80F0005B0A2
:105130005DF804FBE8D1032000F05EB90D4B10B51B
:10514000188070200C4B0D4C1980236898476368B9
:105150007020984751280BD1094B702008221C6001
:10516000084B1870084B1A70E3689847002010BD70
:10517000032010BD66D2032068D20320A4000020C3
:1051800060D2032034D2032064D2032037B5164BFB
:1051900002A900240546187841F8044DFFF774FE73
:1051A0000198182817D009D810280FD0142810D02B
:1051B000B8B90446A862204603B030BD40280CD0E0
:1051C00049280CD01C280CD1042300E00123AB6239
:1051D000F1E70223FBE70323F9E70523F7E70623BB
:1051E000F5E70124E7E700BF34D203202DE9F04FB3
:1051F000534D95B00024534E2B6881460594AA4622
:10520000069407941B6930789847039689F8000044
:1052100078B109F1160509F102060DF1380811AF50
:10522000DFF830B199F800309C4205D34846FFF7CB
:10523000ADFF15B0BDE8F08FDAF800303A460398BC
:1052400041465B69007898473F4B0BA9DFF808C1DE
:105250001A7808AB012A01BFB8F8000023F814003F
:10526000388821F81400900742BFB8F80000C0F554
:10527000805023F81400500742BF3888C0F5805092
:1052800021F81400120742BFB8F8002021F81420BA
:105290003A8831F8141048BF23F81420A20033F8DC
:1052A00014E05BF8243052F80C009E458CBFAEEB46
:1052B0000303A3EB0E0381429BB28CBF081A401A72
:1052C00080B21844039B05281878C4BF4BF802E04D
:1052D0004CF80210702815D1A6F800E0718107ABD8
:1052E00005AA2146009306ABFFF7DEFD059B05F8F6
:1052F000013B069B6B72079B032B14D8DFE803F07E
:1053000011191B1D114B19885BF802304B431B0B05
:1053100033800F4B19885CF802304B431B0B7381B1
:10532000DDE701232B710134023608F10208023750
:1053300078E70223F6E70323F4E70023F2E700BF50
:1053400060D2032034D2032064D2032066D203202B
:1053500068D2032038D203204CD203200F4900200A
:10536000D1F8883043F47003C1F888300C4B1A68C8
:1053700042F001021A6098601A6822F0847222F4E6
:1053800080321A60074A5A601A6822F480221A6032
:10539000D8604FF000638B60704700BF00ED00E005
:1053A000003802401030002408B5094B03201A6869
:1053B00042F400721A601A6842F480721A6000F0B7
:1053C00025FA0020FCF7CAFEFCF7A8FE002008BD65
:1053D000003C0240034A044B11681B780B441360E5
:1053E000704700BFBC660420D0000020014B186845
:1053F000704700BFBC66042038B50446FFF7F6FFCF
:105400000546631C1EBF044B1B78E418FFF7EEFF34
:10541000401B8442FAD838BDD000002038B504467D
:10542000002800F02B810368954A93420CD002F5C6
:105430008072934208D002F58072934204D04FF4F8
:10544000A6719048FCF7B1FB636833F4403304D095
:1054500040F24D118B48FCF7A8FBA36833F0407372
:1054600004D04FF4A7718748FCF79FFB2369012BF9
:1054700004D940F24F118348FCF797FBA369012B35
:1054800004D94FF4A8717F48FCF78FFBA36A33F06F
:10549000407223F0807111D0B2F1806F0ED0B2F162
:1054A000006F0BD0B1F1406F08D003F17143012BB5
:1054B00004D940F251117348FCF777FBE36833F4E9
:1054C000006304D04FF4A9716E48FCF76EFBE369EA
:1054D000013B0F2B04D940F253116A48FCF765FBDE
:1054E00094F83030012B04D94FF4AA716548FCF7C9
:1054F0005CFB6369022B04D940F255116148FCF74B
:1055000054FB94F82030012B04D94FF4AB715D4863
:10551000FCF74BFBA26A5C4B9A4208D0E36A33F07B
:10552000405304D04FF4AD715648FCF73EFB256C58
:105530002DB92046FBF7CCFD656484F83C50236C04
:10554000DB0600F19980236C23F4885323F00203D7
:1055500043F0020323644D4B5A6822F440325A60F0
:105560005A6861680A435A60236821695A6822F4BC
:1055700080725A605A6842EA0122A1685A605A68E9
:1055800022F040725A605A680A43E1685A609A6889
:1055900022F400629A609A680A433B499A60A26AC0
:1055A0008A425DD0996821F07061996099680A43D8
:1055B000E16A9A609A6822F040529A609A680A43B7
:1055C0009A609A68A16922F002029A609A6842EA97
:1055D00041029A6094F82020002A49D0636A013B76
:1055E000072B04D94FF4EE612648FCF7DEFA236856
:1055F000616A5A68013942F400625A605A6822F4BA
:1056000060425A605A6842EA41325A600020236878
:10561000E169DA6A013922F47002DA62DA6A42EA8E
:10562000015294F83010DA629A6822F400729A609B
:105630009A6842EA412261699A609A6822F480621B
:105640009A609A6842EA81229A606064236C23F02F
:10565000030343F001032364002384F83C3038BD86
:105660009A6822F070629A609A6822F04052A7E726
:105670005A6822F40062C8E70120EDE7012038BD36
:10568000002001401D4B03080100000F00230140D2
:105690000023F7B5019304460B680F46122B07D978
:1056A000544A934204D040F25C615348FCF77DFABF
:1056B0007B68013B0F2B04D940F25D614E48FCF73B
:1056C00074FABB68072B04D940F25E614A48FCF7C4
:1056D0006CFA94F83C30012B70D03D680123BA6815
:1056E000092D84F83C302068AEB230D906EB460371
:1056F0004FF0070EC1681E3B0EFA03FE21EA0E01B1
:10570000C1603C498D421DD1C36843EA0263C36056
:105710007A68062A4FEA820329D81344476B591F37
:105720001F238B4006FA01F127EA03034363426B10
:1057300011434163314B984238D0002084F83C003B
:1057400003B0F0BDC16802FA03F30B43DFE705EBDA
:1057500045034FF0070E01690EFA03FE02FA03F348
:1057600021EA0E01016101690B430361D0E70C2AB4
:105770000ED81344016BA3F123021F23934006FAB2
:1057800002F221EA03030363036B1A430263D1E7C6
:1057900013441F22C16A413B9A4021EA020206FAE1
:1057A00003F1C262C26A1143C162C3E7122D07D17D
:1057B000134A536843F480035360BEE70220BFE7F7
:1057C0000C4B9D4201D0112DB7D10D499D424A6825
:1057D00042F400024A60B0D10A4B0B4A1B68B3FB8B
:1057E000F2F20A2353430193019B002BA5D0019BA6
:1057F000013BF8E7120000101D4B03080020014098
:1058000000230140CC00002040420F00C31E042BA7
:1058100010B5044603D992210948FCF7C6F9094A94
:105820002402D36804F4E06423F4E0631B041B0C3B
:1058300043F0BF6343F400331C43D46010BD00BF8A
:105840005B4B030800ED00E00F2A70B504460E46DE
:10585000154603D9AA211D48FCF7A7F90F2E03D935
:10586000AB211A48FCF7A1F9194B0120D968C1F303
:105870000221C1F107030A1D042B28BF0423062AB5
:1058800000FA03F28CBF03390021002C02F1FF3231
:1058900000FA01F002EA060200F1FF3002FA01F21A
:1058A00005EA000542EA05024FEA021207DB04F1AD
:1058B0006044D2B204F5614484F8002370BD04F062
:1058C0000F04D2B2034B1A5570BD00BF5B4B0308E7
:1058D00000ED00E014ED00E0002803DABE210648E8
:1058E000FCF763B94209012300F01F0003FA00F03E
:1058F000024B43F8220070475B4B030800E100E0D5
:10590000002803DACE210948FCF74FB943090122E8
:1059100000F01F00203302FA00F0054A42F823008D
:10592000BFF34F8FBFF36F8F704700BF5B4B030810
:1059300000E100E010B5044608B9012010BD02687E
:10594000314B9A4203D070213048FCF72EF9637F27
:1059500003F0FF021BB922772046FBF715FC022358
:1059600063772379012B03D97E212848FCF71DF9A1
:105970002379002B3ED12368254A5A619A6822F088
:1059800018029A606379012B03D990211F48FCF714
:105990000CF962792368002A34D14FF0FF321A6182
:1059A000636933F0600303D09C211848FCF7FDF8CD
:1059B00022686169936823F060030B439360A369D5
:1059C00033F0800303D0A0211048FCF7EEF82268E2
:1059D000A169936823F080030B439360236A013B22
:1059E000022B03D9A5210948FCF7DFF80123002089
:1059F000637710BDE2682046A16800F00BF800282C
:105A0000C0D09AE72269CAE7003002409C4B0308E5
:105A1000B71DC10432F0180370B506460D46144692
:105A200003D05F211148FCF7C0F81F2313F1FF33A7
:105A300006D325FA03F2D207F8D5082C14D009D8DA
:105A400074B9336800205D619A6822F0180214432B
:105A50009C6070BD102C05D0182C01D1062BF0D9FC
:105A6000012070BD072BFAE70F2BF8E7DA4B03088C
:105A700038B50446002800F0A2800268514B9A42D3
:105A800003D0BA215048FCF790F8A36833F0200304
:105A900003D0BB214C48FCF788F8E36833F080035F
:105AA00003D0BC214848FCF780F8236933F0400359
:105AB00003D0BD214448FCF778F8636833F0100345
:105AC00003D0BE214048FCF770F8636933F480725C
:105AD00006D0B3F5007F03D0BF213B48FCF765F843
